:020000040000FA
:0600000000F053EF07F0D1
:1006000000C020202020202020200080202020202A
:100610002020202000333228010C06000000FFFFBC
:100620003DEC07F00B0E336E060E346EBEEC06F09A
:10063000010E336E060E346EBEEC06F00F0E946E95
:100640003F0E936E24EF03F0FFFF81BA2AEF03F011
:100650002DEF03F0FFFF7DEF04F0FFFF81B033EFDC
:1006600003F038EF03F0FFFF3B6A3B2A3AEF03F059
:10067000FFFF3B6AFFFF81B640EF03F045EF03F059
:10068000FFFF3C6A3C2A47EF03F0FFFF3C6AFFFF95
:100690003C50080DF3CF3DF0F4CF3EF081B453EF62
:1006A00003F058EF03F0FFFF3F6A3F2A5AEF03F0D1
:1006B000FFFF3F6AFFFF3F50040DF3503D26F4500B
:1006C0003E2281B266EF03F06BEF03F0FFFF406A5A
:1006D000402A6DEF03F0FFFF406AFFFF4050020D1C
:1006E000F3503D26F4503E223B503D24416E000E17
:1006F0003E20426E82B07FEF03F084EF03F0FFFFF5
:100700003B6A3B2A86EF03F0FFFF3B6AFFFF82B69E
:100710008CEF03F091EF03F0FFFF3C6A3C2A93EF6C
:1007200003F0FFFF3C6AFFFF3C50080DF3CF3DF0A4
:10073000F4CF3EF082B49FEF03F0A4EF03F0FFFF8D
:100740003F6A3F2AA6EF03F0FFFF3F6AFFFF3F50DB
:10075000040DF3503D26F4503E2282B2B2EF03F076
:10076000B7EF03F0FFFF406A402AB9EF03F0FFFF45
:10077000406AFFFF4050020DF3503D26F4503E22E8
:100780003B503D24436E000E3E20446E81B8CBEFBB
:1007900003F0CEEF03F0FFFF22EF04F0FFFF2A0E7D
:1007A0002D6E41C033F042C034F043C035F044C038
:1007B00036F025EC07F033C045F034C046F045C0B4
:1007C00033F046C034F0000E366E640E356E5AECCF
:1007D00005F03350300F046E45C033F046C034F09E
:1007E000000E366E640E356EE7EC05F033C045F052
:1007F00034C046F045C033F046C034F0000E366ECB
:100800000A0E356E5AEC05F03350300F056E45C0B8
:1008100033F046C034F0000E366E0A0E356EE7EC4B
:1008200005F03350300F066E290E336E000E346E15
:10083000BEEC06F0010E336E000E346EBEEC06F018
:1008400024EF03F0FFFF2D0E2D6E43C03BF044C09C
:100850003CF03B1E3C1E3B4A3C2A41503B24456E2B
:1008600042503C20466E46BE3BEF04F038EF04F0A9
:10087000FFFF4DEF04F0FFFF2D0E226E45C033F059
:1008800046C034F0FF0E366E356825EC07F033C0F5
:1008900045F034C046F052EF04F0FFFF2B0E226EFD
:1008A00052EF04F0FFFF45C033F046C034F0000EB5
:1008B000366E0A0E356E5AEC05F03350300F236E4B
:1008C00045C033F046C034F0000E366E0A0E356E69
:1008D000E7EC05F03350300F246E290E336E000E16
:1008E000346EBEEC06F01F0E336E000E346EBEEC9E
:1008F00006F024EF03F024EF03F0FFFF81B883EF4D
:1009000004F086EF04F0FFFF0BEF05F0FFFF260E6B
:100910002D6E81B68EEF04F093EF04F0FFFF3B6A7B
:100920003B2A95EF04F0FFFF3B6AFFFF82B69BEF87
:1009300004F09FEF04F0FFFF010EA1EF04F0FFFFB2
:10094000000EFFFF3B02F350300F0E6E81B4ABEF91
:1009500004F0B0EF04F0FFFF3B6A3B2AB2EF04F073
:10096000FFFF3B6AFFFF82B4B8EF04F0BCEF04F076
:10097000FFFF010EBEEF04F0FFFF000EFFFF3B0282
:10098000F350300F0F6E81B2C8EF04F0CDEF04F0DA
:10099000FFFF3B6A3B2ACFEF04F0FFFF3B6AFFFFFC
:1009A00082B2D5EF04F0D9EF04F0FFFF010EDBEFC8
:1009B00004F0FFFF000EFFFF3B02F350300F106EFC
:1009C00081B0E5EF04F0EAEF04F0FFFF3B6A3B2A59
:1009D000ECEF04F0FFFF3B6AFFFF82B0F2EF04F0A0
:1009E000F6EF04F0FFFF010EF8EF04F0FFFF000E3A
:1009F000FFFF3B02F350300F116E290E336E000ED5
:100A0000346EBEEC06F00B0E336E000E346EBEEC90
:100A100006F024EF03F0FFFF81A611EF05F015EFBC
:100A200005F0FFFF010E17EF05F0FFFF000EFFFFBF
:100A3000300F0E6E81A41FEF05F023EF05F0FFFFCE
:100A4000010E25EF05F0FFFF000EFFFF300F0F6EC8
:100A500081A22DEF05F031EF05F0FFFF010E33EF1E
:100A600005F0FFFF000EFFFF300F106E81A03BEF7F
:100A700005F03FEF05F0FFFF010E41EF05F0FFFF2E
:100A8000000EFFFF300F116E150E336E000E346E28
:100A9000BEEC06F00B0E336E000E346EBEEC06F0AC
:100AA00024EF03F024EF03F024EF03F024EF03F02E
:100AB00001EF00F0FFFF000E386E36BE65EF05F067
:100AC00062EF05F0FFFF6EEF05F0FFFF356C361E9D
:100AD000D8B0362A010E386E6EEF05F0FFFF34BE37
:100AE00077EF05F074EF05F0FFFF80EF05F0FFFFF3
:100AF000336C341ED8B0342A010E381A80EF05F05A
:100B0000FFFF000E3A6E000E396E35503610D8B425
:100B10008CEF05F08FEF05F0FFFFCCEF05F0FFFF46
:100B2000010E376E9BEF05F0FFFFD8903536363655
:100B3000372A9BEF05F0FFFF36AEA1EF05F0A4EFDB
:100B400005F0FFFF94EF05F0FFFFA9EF05F0A9EF17
:100B500005F0FFFFD89039363A363550335C3650C1
:100B60003458D8A0B6EF05F0B9EF05F0FFFFC1EF9C
:100B700005F0FFFF3550335E3650345A3980C1EFEF
:100B800005F0FFFFD89036323532372EA9EF05F049
:100B9000CCEF05F0CCEF05F0FFFF3850D8B4D3EF21
:100BA00005F0D6EF05F0FFFFDDEF05F0FFFF396C34
:100BB0003A1ED8B03A2ADDEF05F0FFFF39C033F016
:100BC0003AC034F0E4EF05F0FFFF1200FFFFFFFF33
:100BD000000E386E34BEF2EF05F0EFEF05F0FFFFC8
:100BE000FBEF05F0FFFF336C341ED8B0342A010E42
:100BF000386EFBEF05F0FFFF36BE04EF06F001EFA5
:100C000006F0FFFF0BEF06F0FFFF356C361ED8B085
:100C1000362A0BEF06F0FFFF35503610D8B413EF2D
:100C200006F016EF06F0FFFF4FEF06F0FFFF010E94
:100C3000376E22EF06F0FFFFD89035363636372A6A
:100C400022EF06F0FFFF36AE28EF06F02BEF06F09E
:100C5000FFFF1BEF06F0FFFF30EF06F030EF06F06E
:100C6000FFFF3550335C36503458D8A03AEF06F0C9
:100C70003DEF06F0FFFF44EF06F0FFFF3550335E17
:100C80003650345A44EF06F0FFFFD89036323532F2
:100C9000372E30EF06F04FEF06F04FEF06F0FFFF74
:100CA0003850D8B456EF06F059EF06F0FFFF60EF6A
:100CB00006F0FFFF336C341ED8B0342A60EF06F024
:100CC000FFFF33C033F034C034F067EF06F0FFFFAE
:100CD0001200FFFFFFFF010E346EF40E336EA80EFC
:100CE000FFFFE82EFDD7332EFBD7342EF9D700D0E7
:100CF0008490150E356E060E366EA7EF06F0FFFFD8
:100D000035C0F6FF36C0F7FF0800FFFFF5CF37F01C
:100D1000848237C083FF8492190E336E5D0EFFFF0D
:100D2000E82EFDD7332EFBD7373AF00E37168482E4
:100D300037C083FF8492190E336E5D0EFFFFE82EDD
:100D4000FDD7332EFBD7354A362AA7EF06F0FFFF33
:100D500035C0F6FF36C0F7FF0800FFFFF550000969
:100D6000D8A4B5EF06F0B8EF06F0FFFF7FEF06F06E
:100D7000FFFFBBEF06F0FFFF1200FFFFFFFF8490B5
:100D8000EBEF06F0FFFF33C0F6FF34C0F7FFF86A61
:100D9000050EF76404D00800FFFFF55005D0F6CF2C
:100DA000E9FFF7CFEAFFEF50366E848236C083FF4B
:100DB0008492363AF00E3616848236C083FF8492CF
:100DC000190E356E5D0EFFFFE82EFDD7352EFBD7D1
:100DD0008480334A342AFFFF33C0F6FF34C0F7FF64
:100DE000F86A050EF76404D00800FFFFF55005D03F
:100DF000F6CFE9FFF7CFEAFFEF500009D8A403EFE1
:100E000007F006EF07F0FFFFC2EF06F0FFFF09EF64
:100E100007F0FFFF1200FFFFC0202020202020202D
:100E20002000C02020202020202020008020202101
:100E3000423D20202000C020202020202020200013
:100E40008020204220433D202000FFFF3350350208
:100E5000F3CF37F0F4CF38F033503602F350382662
:100E600034503502F350382637C033F038C034F0F0
:100E70003AEF07F0FFFF1200FFFFFFFF8E0EC16E7B
:100E8000E10E926EDC0E936ED00E946E0F0E956E88
:100E9000000E966E100E806E8096809480926AECA2
:100EA00006F01200FFFF180EF66E0E0EF76E000E23
:100EB000F86E00EE01F010EE32F00900F5CFEEFF13
:100EC000E550E150FAE1000EF86E00010FEF03F07B
:020ED000FFFF22
:020000040020DA
:08000000FFFFFFFFFFFFFFFF00
:020000040030CA
:0E000000FF220D0EFF0181FF0FC00FE00F4029
:00000001FF
