:020000040000FA
:0600000000F039EF04F0EE
:1006000000C020202020202020200080202020202A
:100610002020202000333228010C06000000FFFFBC
:10062000010E3C6EF40E3B6EA80EFFFFE82EFDD7C8
:100630003B2EFBD73C2EF9D700D08490150E3D6E93
:10064000060E3E6E4CEF03F0FFFF3DC0F6FF3EC0CE
:10065000F7FF0800FFFFF5CF3FF084823FC083FF24
:100660008492190E3B6E5D0EFFFFE82EFDD73B2EE8
:10067000FBD73F3AF00E3F1684823FC083FF84923F
:10068000190E3B6E5D0EFFFFE82EFDD73B2EFBD70C
:100690003D4A3E2A4CEF03F0FFFF3DC0F6FF3EC04F
:1006A000F7FF0800FFFFF5500009D8A45AEF03F048
:1006B0005DEF03F0FFFF24EF03F0FFFF60EF03F0B7
:1006C000FFFF1200FFFFFFFF849090EF03F0FFFF9A
:1006D0003BC0F6FF3CC0F7FFF86A050EF76404D094
:1006E0000800FFFFF55005D0F6CFE9FFF7CFEAFF8E
:1006F000EF503E6E84823EC083FF84923E3AF00EFD
:100700003E1684823EC083FF8492190E3D6E5D0EBC
:10071000FFFFE82EFDD73D2EFBD784803B4A3C2AC5
:10072000FFFF3BC0F6FF3CC0F7FFF86A050EF76419
:1007300004D00800FFFFF55005D0F6CFE9FFF7CF52
:10074000EAFFEF500009D8A4A8EF03F0ABEF03F0E5
:10075000FFFF67EF03F0FFFFAEEF03F0FFFF1200B4
:10076000FFFFFFFF20EE0BF010EE41F0090EDBCF94
:10077000E3FFE806FCE2410E3B6E000E3C6E63ECCC
:1007800003F01D0E406E8E0E3F6EE10EFFFFE82E51
:10079000FDD73F2EFBD7402EF9D700D020EE01F039
:1007A00010EE4BF0090EDBCFE3FFE806FCE24B0E48
:1007B0003B6E000E3C6E63EC03F01D0E406E8E0E21
:1007C0003F6EE10EFFFFE82EFDD73F2EFBD7402EF8
:1007D000F9D700D01200FFFF80593D73696E28F4ED
:1007E000290080583DE02AF6E22A59005880849F6B
:1007F000959F8484005880808C9586808000C020DE
:1008000020202020202020008020202020202020A8
:100810002000FFFF23EC04F00B0E3B6E060E3C6E37
:1008200063EC03F0010E3B6E060E3C6E63EC03F0CE
:100830001AEF04F0FFFFB1EC03F01AEF04F01AEF27
:1008400004F001EF00F0FFFF8E0EC16EE10E926E1C
:10085000DC0E936ED00E946E0F0E956E000E966E9B
:10086000100E806E8096809480920FEC03F0120040
:10087000FFFFD80EF66E070EF76E000EF86E00EE54
:1008800001F010EE3AF00900F5CFEEFFE550E1502F
:0E089000FAE1000EF86E000109EF04F0FFFF20
:020000040020DA
:08000000FFFFFFFFFFFFFFFF00
:020000040030CA
:0E000000FF220D0EFF0181FF0FC00FE00F4029
:00000001FF
