:020000040000FA
:0600000000F04DEF00F0DE
:08000800FFFF41822BEF09F01C
:10001800FFFF4180D8CF19F0E8CF1AF0E0CF1BF0EE
:10002800E9CF1CF0EACF1DF0F6CF1EF0F7CF1FF096
:10003800F8CF20F0F5CF21F0F2AA25EF00F028EF55
:1000480000F0FFFF37EF00F0FFFFF2A42EEF00F003
:1000580031EF00F0FFFF37EF00F0FFFFF3EC08F09F
:10006800F29437EF00F0FFFF21C0F5FF20C0F8FF42
:100078001FC0F7FF1EC0F6FF1DC0EAFF1CC0E9FF46
:100088001BC0E0FF1AC0E8FF19C0D8FF419010005C
:06009800FFFFCEEF09F0AE
:1006000000C020202020202020200080202020202A
:100610002020202000333228010C06000000FFFFBC
:10062000000E276E25BE1AEF03F017EF03F0FFFF51
:1006300023EF03F0FFFF246C251ED8B0252A010EFE
:10064000276E23EF03F0FFFF23BE2CEF03F029EF0B
:1006500003F0FFFF35EF03F0FFFF226C231ED8B03D
:10066000232A010E271A35EF03F0FFFF000E296E33
:10067000000E286E24502510D8B441EF03F044EF4B
:1006800003F0FFFF81EF03F0FFFF010E266E50EF36
:1006900003F0FFFFD89024362536262A50EF03F0CA
:1006A000FFFF25AE56EF03F059EF03F0FFFF49EFD0
:1006B00003F0FFFF5EEF03F05EEF03F0FFFFD89063
:1006C000283629362450225C25502358D8A06BEFB9
:1006D00003F06EEF03F0FFFF76EF03F0FFFF24500F
:1006E000225E2550235A288076EF03F0FFFFD89032
:1006F00025322432262E5EEF03F081EF03F081EFE6
:1007000003F0FFFF2750D8B488EF03F08BEF03F01E
:10071000FFFF92EF03F0FFFF286C291ED8B0292AB3
:1007200092EF03F0FFFF28C022F029C023F099EFD9
:1007300003F0FFFF1200FFFFFFFF000E156E13BE58
:10074000A7EF03F0A4EF03F0FFFFB0EF03F0FFFF0C
:10075000126C131ED8B0132A010E156EB0EF03F001
:10076000FFFF11BEB9EF03F0B6EF03F0FFFFC2EFDA
:1007700003F0FFFF106C111ED8B0112A010E151ADC
:10078000C2EF03F0FFFF000E176E000E166E125040
:100790001310D8B4CEEF03F0D1EF03F0FFFF0EEF4C
:1007A00004F0FFFF010E146EDDEF03F0FFFFD890A1
:1007B00012361336142ADDEF03F0FFFF13AEE3EF1A
:1007C00003F0E6EF03F0FFFFD6EF03F0FFFFEBEFE0
:1007D00003F0EBEF03F0FFFFD890163617361250F8
:1007E000105C13501158D8A0F8EF03F0FBEF03F0A2
:1007F000FFFF03EF04F0FFFF1250105E1350115A79
:10080000168003EF04F0FFFFD89013321232142E3B
:10081000EBEF03F00EEF04F00EEF04F0FFFF1550C6
:10082000D8B415EF04F018EF04F0FFFF1FEF04F049
:10083000FFFF166C171ED8B0172A1FEF04F0FFFF3A
:1008400016C010F017C011F026EF04F0FFFF1200E1
:10085000FFFFFFFF000E066E04BE34EF04F031EF21
:1008600004F0FFFF3DEF04F0FFFF036C041ED8B05F
:10087000042A010E066E3DEF04F0FFFF02BE46EFB4
:1008800004F043EF04F0FFFF4FEF04F0FFFF016CB3
:10089000021ED8B0022A010E061A4FEF04F0FFFF25
:1008A000000E086E000E076E03500410D8B45BEF04
:1008B00004F05EEF04F0FFFF9BEF04F0FFFF010E7A
:1008C000056E6AEF04F0FFFFD89003360436052A60
:1008D0006AEF04F0FFFF04AE70EF04F073EF04F072
:1008E000FFFF63EF04F0FFFF78EF04F078EF04F010
:1008F000FFFFD890073608360350015C04500258B9
:10090000D8A085EF04F088EF04F0FFFF90EF04F02B
:10091000FFFF0350015E0450025A078090EF04F07D
:10092000FFFFD89004320332052E78EF04F09BEFDE
:1009300004F09BEF04F0FFFF0650D8B4A2EF04F0E0
:10094000A5EF04F0FFFFACEF04F0FFFF076C081EFB
:10095000D8B0082AACEF04F0FFFF07C001F008C0D0
:1009600002F0B3EF04F0FFFF1200FFFFFFFF000EE5
:10097000276E23BEC1EF04F0BEEF04F0FFFFCAEF05
:1009800004F0FFFF226C231ED8B0232A010E276E2D
:10099000CAEF04F0FFFF25BED3EF04F0D0EF04F060
:1009A000FFFFDAEF04F0FFFF246C251ED8B0252AE4
:1009B000DAEF04F0FFFF24502510D8B4E2EF04F082
:1009C000E5EF04F0FFFF1EEF05F0FFFF010E266EBE
:1009D000F1EF04F0FFFFD89024362536262AF1EFF8
:1009E00004F0FFFF25AEF7EF04F0FAEF04F0FFFF8D
:1009F000EAEF04F0FFFFFFEF04F0FFEF04F0FFFF6A
:100A00002450225C25502358D8A009EF05F00CEFA4
:100A100005F0FFFF13EF05F0FFFF2450225E255085
:100A2000235A13EF05F0FFFFD89025322432262EEB
:100A3000FFEF04F01EEF05F01EEF05F0FFFF27505B
:100A4000D8B425EF05F028EF05F0FFFF2FEF05F0F4
:100A5000FFFF226C231ED8B0232A2FEF05F0FFFFE3
:100A600022C022F023C023F036EF05F0FFFF120072
:100A7000FFFFFFFF000E156E11BE44EF05F041EFC2
:100A800005F0FFFF4DEF05F0FFFF106C111ED8B011
:100A9000112A010E156E4DEF05F0FFFF13BE56EF44
:100AA00005F053EF05F0FFFF5DEF05F0FFFF126C5F
:100AB000131ED8B0132A5DEF05F0FFFF125013107C
:100AC000D8B465EF05F068EF05F0FFFFA1EF05F082
:100AD000FFFF010E146E74EF05F0FFFFD890123681
:100AE0001336142A74EF05F0FFFF13AE7AEF05F00A
:100AF0007DEF05F0FFFF6DEF05F0FFFF82EF05F0E2
:100B000082EF05F0FFFF1250105C13501158D8A06F
:100B10008CEF05F08FEF05F0FFFF96EF05F0FFFF7C
:100B20001250105E1350115A96EF05F0FFFFD89047
:100B300013321232142E82EF05F0A1EF05F0A1EF6F
:100B400005F0FFFF1550D8B4A8EF05F0ABEF05F0A6
:100B5000FFFFB2EF05F0FFFF106C111ED8B0112A95
:100B6000B2EF05F0FFFF10C010F011C011F0B9EFA7
:100B700005F0FFFF1200FFFFFFFF000E066E02BE32
:100B8000C7EF05F0C4EF05F0FFFFD0EF05F0FFFF62
:100B9000016C021ED8B0022A010E066ED0EF05F0DD
:100BA000FFFF04BED9EF05F0D6EF05F0FFFFE0EF41
:100BB00005F0FFFF036C041ED8B0042AE0EF05F037
:100BC000FFFF03500410D8B4E8EF05F0EBEF05F099
:100BD000FFFF24EF06F0FFFF010E056EF7EF05F0B3
:100BE000FFFFD89003360436052AF7EF05F0FFFF24
:100BF00004AEFDEF05F000EF06F0FFFFF0EF05F0AB
:100C0000FFFF05EF06F005EF06F0FFFF0350015C64
:100C100004500258D8A00FEF06F012EF06F0FFFFC5
:100C200019EF06F0FFFF0350015E0450025A19EF5E
:100C300006F0FFFFD89004320332052E05EF06F0D0
:100C400024EF06F024EF06F0FFFF0650D8B42BEF98
:100C500006F02EEF06F0FFFF35EF06F0FFFF016C08
:100C6000021ED8B0022A35EF06F0FFFF01C001F0E6
:100C700002C002F03CEF06F0FFFF1200FFFFFFFF93
:100C80003E2A3C0E3E6447EF06F04AEF06F0FFFFB7
:100C900050EF06F0FFFF000E3E6E3F2A50EF06F0C9
:100CA000FFFF3C0E3F6457EF06F05AEF06F0FFFFE0
:100CB00060EF06F0FFFF000E3F6E402A60EF06F087
:100CC000FFFF180E406467EF06F06AEF06F0FFFFC3
:100CD0006FEF06F0FFFF000E406E6FEF06F0FFFFB4
:100CE00040C010F0116A000E136E0A0E126E9CECDA
:100CF00003F01050300F356E40C010F0116A000E36
:100D0000136E0A0E126E39EC05F01050300F366E6D
:100D10003FC010F0116A000E136E0A0E126E9CECAA
:100D200003F01050300F386E3FC010F0116A000E03
:100D3000136E0A0E126E39EC05F01050300F396E3A
:100D40003EC010F0116A000E136E0A0E126E9CEC7B
:100D500003F01050300F3B6E3EC010F0116A000ED1
:100D6000136E0A0E126E39EC05F01050300F3C6E07
:100D7000340E106E000E116E57EC08F01200FFFFDB
:100D8000FFFFE8EC09F00B0E226E060E236E09EC55
:100D900008F0010E226E060E236E09EC08F00F0E0D
:100DA000936E100E926E5FEC09F0F28AF288F00EEC
:100DB000F16E080EF06ED08EF28CF28E000E406E48
:100DC000000E3F6E000E3E6E3A0E376E3A0E3A6ED1
:100DD00040C022F0236A000E256E0A0E246E0FEC2E
:100DE00003F02250300F356E40C022F0236A000E0F
:100DF000256E0A0E246EB6EC04F02250300F366ECB
:100E00003FC022F0236A000E256E0A0E246E0FECFE
:100E100003F02250300F386E3FC022F0236A000EDC
:100E2000256E0A0E246EB6EC04F02250300F396E97
:100E30003EC022F0236A000E256E0A0E246E0FECCF
:100E400003F02250300F3B6E3EC022F0236A000EAA
:100E5000256E0A0E246EB6EC04F02250300F3C6E64
:100E6000340E226E000E236E09EC08F0809280840E
:100E70008096D58EFFFF3AEF07F04DEF00F0FFFFB1
:100E8000000E3E6E000E3F6E000E406E56EF07F0F5
:100E9000FFFF8082809480860D0E096E2E0EFFFF6C
:100EA000E82EFDD7092EFBD756EF07F0FFFF81B0E4
:100EB0005CEF07F05FEF07F0FFFF48EF07F0FFFF81
:100EC000809280848096A9EC09F040C001F0026A0B
:100ED000000E046E0A0E036E29EC04F00150300F70
:100EE000356E40C001F0026A000E046E0A0E036EF9
:100EF000BCEC05F00150300F366E3FC001F0026AC5
:100F0000000E046E0A0E036E29EC04F00150300F3F
:100F1000386E3FC001F0026A000E046E0A0E036EC6
:100F2000BCEC05F00150300F396E3EC001F0026A92
:100F3000000E046E0A0E036E29EC04F00150300F0F
:100F40003B6E3EC001F0026A000E046E0A0E036E94
:100F5000BCEC05F00150300F3C6E340E016E000EFB
:100F6000026EA5EC08F01200FFFFFFFF010E236EDA
:100F7000F40E226EA80EFFFFE82EFDD7222EFBD71F
:100F8000232EF9D700D08490150E246E060E256E00
:100F9000F2EF07F0FFFF24C0F6FF25C0F7FF0800BF
:100FA000FFFFF5CF26F0848226C083FF8492190EBE
:100FB000226E5D0EFFFFE82EFDD7222EFBD7263ACC
:100FC000F00E2616848226C083FF8492190E226EAC
:100FD0005D0EFFFFE82EFDD7222EFBD7244A252ADF
:100FE000F2EF07F0FFFF24C0F6FF25C0F7FF08006F
:100FF000FFFFF5500009D8A400EF08F003EF08F058
:10100000FFFFCAEF07F0FFFF06EF08F0FFFF120037
:10101000FFFFFFFF849036EF08F0FFFF22C0F6FFCE
:1010200023C0F7FFF86A050EF76404D00800FFFF3D
:10103000F55005D0F6CFE9FFF7CFEAFFEF50256E68
:10104000848225C083FF8492253AF00E251684827F
:1010500025C083FF8492190E246E5D0EFFFFE82EDB
:10106000FDD7242EFBD78480224A232AFFFF22C0EB
:10107000F6FF23C0F7FFF86A050EF76404D00800F6
:10108000FFFFF55005D0F6CFE9FFF7CFEAFFEF50AD
:101090000009D8A44EEF08F051EF08F0FFFF0DEF64
:1010A00008F0FFFF54EF08F0FFFF1200FFFFFFFF03
:1010B000849084EF08F0FFFF10C0F6FF11C0F7FF27
:1010C000F86A050EF76404D00800FFFFF55005D05C
:1010D000F6CFE9FFF7CFEAFFEF50136E848213C01B
:1010E00083FF8492133AF00E1316848213C083FF99
:1010F0008492190E126E5D0EFFFFE82EFDD7122EA0
:10110000FBD78480104A112AFFFF10C0F6FF11C0E0
:10111000F7FFF86A050EF76404D00800FFFFF550EA
:1011200005D0F6CFE9FFF7CFEAFFEF500009D8A4CA
:101130009CEF08F09FEF08F0FFFF5BEF08F0FFFF68
:10114000A2EF08F0FFFF1200FFFFFFFF8490D2EF35
:1011500008F0FFFF01C0F6FF02C0F7FFF86A050EB6
:10116000F76404D00800FFFFF55005D0F6CFE9FF83
:10117000F7CFEAFFEF50046E848204C083FF8492AD
:10118000043AF00E0416848204C083FF8492190E80
:10119000036E5D0EFFFFE82EFDD7032EFBD7848084
:1011A000014A022AFFFF01C0F6FF02C0F7FFF86AFA
:1011B000050EF76404D00800FFFFF55005D0F6CF08
:1011C000E9FFF7CFEAFFEF500009D8A4EAEF08F0F3
:1011D000EDEF08F0FFFFA9EF08F0FFFFF0EF08F0D8
:1011E000FFFF1200FFFFFFFF18EF09F0FFFF81A6CE
:1011F000FCEF08F0FFEF08F0FFFF18EF09F0FFFF2A
:1012000081A405EF09F008EF09F0FFFF18EF09F0DE
:10121000FFFF3FEC06F07A0E186ED40EFFFFE82EAB
:10122000FDD7182EFBD700D018EF09F018EF09F002
:10123000FFFF81B21EEF09F021EF09F0FFFFF6EF8B
:1012400008F0FFFF24EF09F0FFFF3FEC06F084EC0D
:1012500009F01200FFFFFFFFE9CF0AF0EACF0BF021
:10126000F6CF0CF0F7CF0DF0F8CF0EF0F5CF0FF072
:10127000F2A83DEF09F040EF09F0FFFF4FEF09F052
:10128000FFFFF2A246EF09F049EF09F0FFFF4FEF31
:1012900009F0FFFF3FEC07F0F2924FEF09F0FFFF7C
:1012A0000FC0F5FF0EC0F8FF0DC0F7FF0CC0F6FF32
:1012B0000BC0EAFF0AC0E9FF41921100FFFFFFFFE8
:1012C000D59CD59AD598D596D550F80B0509D56EED
:1012D000980E256E960E246E24C022F025C023F0B1
:1012E000221E231E224A232AFF0E2224286EFF0ECE
:1012F0002320296E2950266E28C027F026C0D7FF4C
:1013000027C0D6FF1200FFFFFFFFD59CD59AD598C6
:10131000D596D550F80B0509D56E980E136E960E1E
:10132000126E12C010F013C011F0101E111E104AE0
:10133000112AFF0E1024166EFF0E1120176E175083
:10134000146E16C015F014C0D7FF15C0D6FF1200DA
:10135000FFFFFFFFD59CD59AD598D596D550F80BB1
:101360000509D56E980E046E960E036E03C001F04B
:1013700004C002F0011E021E014A022AFF0E0124CF
:10138000076EFF0E0220086E0850056E07C006F0BB
:1013900005C0D7FF06C0D6FF1200FFFFFC0EF66E99
:1013A000130EF76E000EF86E00EE2AF010EE14F039
:1013B0000900F5CFEEFFE550E150FAE1406A3F6ADF
:1013C0003E6A41904192000EF86E0001C0EF06F0B7
:1013D000FFFF8E0EC16EE10E926EDC0E936ED00E8C
:1013E000946E0F0E956E000E966E100E806E8096A7
:1013F00080948092B5EC07F01200FFFFC0682020B7
:1014000020202020200080202020202020202000BC
:02141000FFFFDC
:020000040020DA
:08000000FFFFFFFFFFFFFFFF00
:020000040030CA
:0E000000FF220D0EFF0181FF0FC00FE00F4029
:00000001FF
