:020000040000FA
:0600000000F06AEF17F0AA
:1006000000ECF34A48359595C717C1DC45FDDB6D15
:10061000C372B333402B3401487F9DB045E7FFD907
:10062000420000803FC02020202020202020008089
:10063000202020202020202000333228010C06001A
:100640000000FFFF3550800B426E35503524446E5C
:1006500034AE2DEF03F030EF03F0FFFF34EF03F083
:10066000FFFF448034EF03F0FFFF4450D8B43BEF6A
:1006700003F03EEF03F0FFFF59EF03F0FFFF4428C4
:10068000D8A445EF03F048EF03F0FFFF53EF03F06A
:10069000FFFF000E326E000E336E000E346E000E41
:1006A000356E53EF03F0FFFF348E000E356E64EFAE
:1006B00003F0FFFF000E326E000E336E000E346E3C
:1006C000000E356E64EF03F0FFFF3950800B436E70
:1006D00042504318D8B46FEF03F072EF03F0FFFFFE
:1006E00076EF03F0FFFF428C76EF03F0FFFF395007
:1006F0003924436E38AE7FEF03F082EF03F0FFFF43
:1007000086EF03F0FFFF438086EF03F0FFFF4350C7
:10071000D8B48DEF03F090EF03F0FFFFABEF03F0E1
:10072000FFFF4328D8A497EF03F09AEF03F0FFFFF1
:10073000A5EF03F0FFFF000E366E000E376E000EC1
:10074000386E000E396EA5EF03F0FFFF388E000EF5
:10075000396EB6EF03F0FFFF000E366E000E376EF7
:10076000000E386E000E396EB6EF03F0FFFF4450F6
:10077000435CD8B0BEEF03F0C1EF03F0FFFFF0EF32
:1007800003F0FFFF42ACC7EF03F0CAEF03F0FFFF37
:10079000CFEF03F0FFFF800E421ACFEF03F0FFFF11
:1007A00044C045F043C044F045C043F032C045F07A
:1007B00036C032F045C036F033C045F037C033F0B4
:1007C00045C037F034C045F038C034F045C038F08B
:1007D00035C045F039C035F045C039F0F0EF03F0D1
:1007E000FFFF000E456E44503A6E3B6A3A1E3B1EB8
:1007F0003A4A3B2A43503C6E3D6A3A503C263B50B5
:100800003D223DBE0DEF04F03D500AE11A0E3C5C66
:10081000D8A00DEF04F010EF04F0FFFF59EF04F043
:10082000FFFF3250331034103510D8A41AEF04F003
:100830001EEF04F0FFFF010E20EF04F0FFFF000E9B
:10084000FFFF456E000E326E000E336E000E346EEA
:10085000000E356E43C044F067EF04F059EF04F02A
:10086000FFFF45A036EF04F039EF04F0FFFF40EF43
:1008700004F0FFFFD89045300109456E45EF04F0C4
:10088000FFFFD890453245EF04F0FFFF32A04BEF59
:1008900004F04EEF04F0FFFF52EF04F0FFFF458E2F
:1008A00052EF04F0FFFF3534353234323332323216
:1008B000442AFFFF4350445CD8A061EF04F064EF8A
:1008C00004F0FFFF30EF04F0FFFF67EF04F0FFFFDD
:1008D00042BC6DEF04F070EF04F0FFFFC5EF04F0D1
:1008E000FFFF4450D8A477EF04F07AEF04F0FFFF45
:1008F00087EF04F0FFFF000E326E000E336E000E25
:10090000346E000E356E56EF06F056EF06F0FFFF20
:10091000365032263750332238503422395035225F
:1009200035A095EF04F098EF04F0FFFF8DEF05F090
:10093000FFFF45A09EEF04F0A1EF04F0FFFFA8EF3A
:1009400004F0FFFFD89045300109456EADEF04F08B
:10095000FFFFD8904532ADEF04F0FFFF32A0B3EFB8
:1009600004F0B6EF04F0FFFFBAEF04F0FFFF458E8E
:10097000BAEF04F0FFFF35343532343233323232DD
:10098000442A8DEF05F08DEF05F0FFFF3650325C05
:1009900037503358385034583550800A3A6E3950F1
:1009A000800A3A58D8B0D7EF04F0DAEF04F0FFFF2E
:1009B0001BEF05F0FFFF32C03AF033C03BF034C00C
:1009C0003CF035C03DF03A1E3B1E3C1E3D1E3A2A0F
:1009D000000E3B223C223D2236503A243E6E3750D8
:1009E0003B203F6E38503C20406E39503D20416ED8
:1009F000FF0E3E24326EFF0E3F20336EFF0E40206E
:100A0000346EFF0E4120356E800E421A456C455003
:100A1000D8A40DEF05F010EF05F0FFFF24EF05F06F
:100A2000FFFF010E3226000E33223422352224EF3E
:100A300005F024EF05F0FFFF3650325E3750335A91
:100A40003850345A3950355AFFFF32503310341071
:100A50003510D8A42EEF05F031EF05F0FFFF7FEF42
:100A600005F0FFFF4550D8A438EF05F03BEF05F047
:100A7000FFFF7FEF05F0FFFF000E326E000E336EBA
:100A8000000E346E000E356E56EF06F056EF06F08F
:100A90007FEF05F0FFFFD8903236333634363536E7
:100AA00045AE55EF05F058EF05F0FFFF5CEF05F0A0
:100AB000FFFF32805CEF05F0FFFF45A062EF05F01D
:100AC00065EF05F0FFFF6AEF05F0FFFFD8804536C0
:100AD0006FEF05F0FFFFD89045366FEF05F0FFFF91
:100AE0004450D8B476EF05F079EF05F0FFFF7FEFC3
:100AF00005F0FFFF44067FEF05F07FEF05F0FFFFF5
:100B000034AE85EF05F088EF05F0FFFF4AEF05F002
:100B1000FFFF8DEF05F08DEF05F0FFFF000E436E38
:100B200045AE95EF05F098EF05F0FFFFBAEF05F041
:100B3000FFFF45C03AF07F0E3A16D8B4A2EF05F099
:100B4000A5EF05F0FFFFAAEF05F0FFFF010E436ED2
:100B5000BAEF05F0FFFF32A0B0EF05F0B3EF05F0FC
:100B6000FFFFBAEF05F0FFFF010E436EBAEF05F08D
:100B7000BAEF05F0FFFF4350D8B4C1EF05F0C4EF62
:100B800005F0FFFFFAEF05F0FFFF010E3226000E21
:100B900033223422352235A0D0EF05F0D3EF05F013
:100BA000FFFFFAEF05F0FFFF32C03AF033C03BF031
:100BB00034C03CF035C03DF03D343D323C323B3238
:100BC0003A323AC032F03BC033F03CC034F03DC062
:100BD00035F04428D8B4EFEF05F0F2EF05F0FFFF51
:100BE000FAEF05F0FFFF442AFAEF05F0FAEF05F0FF
:100BF000FAEF05F0FFFF4428D8B401EF06F004EF48
:100C000006F0FFFF11EF06F0FFFF4450D8A40BEFF2
:100C100006F00EEF06F0FFFF2AEF06F0FFFF11EFE0
:100C200006F0FFFF000E326E000E336E000E346EC3
:100C3000000E356E4450D8A420EF06F023EF06F0E6
:100C4000FFFF2AEF06F0FFFF000E426E2AEF06F0CC
:100C50002AEF06F0FFFF44A030EF06F033EF06F076
:100C6000FFFF37EF06F0FFFF348E3BEF06F0FFFF8C
:100C7000349E3BEF06F0FFFFD8904430356E42AE15
:100C800044EF06F047EF06F0FFFF4BEF06F0FFFFE3
:100C9000358E4BEF06F0FFFF32C032F033C033F039
:100CA00034C034F035C035F056EF06F0FFFF1200C7
:100CB000FFFFFFFF1C50800B256E1C501C242B6E69
:100CC0001BAE65EF06F068EF06F0FFFF6CEF06F075
:100CD000FFFF2B806CEF06F0FFFF2B50D8B473EFB3
:100CE00006F076EF06F0FFFF8FEF06F0FFFF2B28F0
:100CF000D8A47DEF06F080EF06F0FFFF8BEF06F043
:100D0000FFFF000E196E000E1A6E000E1B6E000E15
:100D10001C6E8BEF06F0FFFF1B8E9AEF06F0FFFFB5
:100D2000000E196E000E1A6E000E1B6E000E1C6E69
:100D30009AEF06F0FFFF2050800B251A2050202448
:100D40002A6E1FAEA6EF06F0A9EF06F0FFFFADEF8B
:100D500006F0FFFF2A80ADEF06F0FFFF2A50D8B45F
:100D6000B4EF06F0B7EF06F0FFFFD0EF06F0FFFF9D
:100D70002A28D8A4BEEF06F0C1EF06F0FFFFCCEFA3
:100D800006F0FFFF000E1D6E000E1E6E000E1F6EA1
:100D9000000E206ECCEF06F0FFFF1F8ED9EF06F09D
:100DA000FFFF000E1D6E000E1E6E000E1F6E000E69
:100DB000206EFFFF2A50D8B4E0EF06F0E3EF06F014
:100DC000FFFFF0EF06F0FFFF2B50D8A4EAEF06F08C
:100DD000EDEF06F0FFFFFDEF06F0FFFFF0EF06F08E
:100DE000FFFF000E196E000E1A6E000E1B6E000E35
:100DF0001C6ECBEF08F0CBEF08F0FFFF1F5019027D
:100E0000F3CF30F0F4CF31F03050266E276A286AE5
:100E1000296A31502C6E2D6A2E6A2F6A1E501A02D2
:100E2000F3CF30F0F4CF31F030502626000E2722D9
:100E30002822292231502C26000E2D222E222F224C
:100E40001D501B02F3CF30F0F4CF31F03050262686
:100E5000000E27222822292231502C26000E2D2276
:100E60002E222F2228C029F027C028F026C027F0E4
:100E7000266A1D501A02F3CF30F0F4CF31F0305013
:100E8000262631502722000E2822000E29221E502D
:100E90001902F3CF30F0F4CF31F030502626315024
:100EA0002722000E2822000E292228C029F027C060
:100EB00028F026C027F0266A1D501902F3CF30F023
:100EC000F4CF31F03050262631502722000E282250
:100ED000000E29221F501A02F3CF30F0F4CF31F068
:100EE00030502C2631502D22000E2E22000E2F22A3
:100EF0001E501B02F3CF30F0F4CF31F030502C26CF
:100F000031502D22000E2E22000E2F221F501B02C8
:100F1000F3CF30F0F4CF31F03050216E3150226EEB
:100F2000236A246A23C024F022C023F021C022F0C7
:100F3000216A21502C2622502D2223502E2224506B
:100F40002F2226C021F027C022F028C023F029C07C
:100F500024F0190EB2EF07F0FFFFD89024322332AD
:100F600022322132FFFFE82EACEF07F021502C2671
:100F700022502D2223502E2224502F2228C029F027
:100F800027C028F026C027F0266A2A502BC021F05F
:100F9000226A2126000E2222820E2124306EFF0EAC
:100FA0002220316EEFEF07F0FFFFD8902C362D3660
:100FB0002E362F3629AEDFEF07F0E2EF07F0FFFF06
:100FC000E4EF07F0FFFF2C80FFFFD890263627368E
:100FD000283629363006D8A03106EFEF07F0FFFF9C
:100FE0002EAEF5EF07F0F8EF07F0FFFFD4EF07F0B4
:100FF000FFFFFBEF07F0FFFF000E2A6E29AE03EFA5
:1010000008F006EF08F0FFFF34EF08F0FFFFFF0ED7
:101010002614216EFF0E2714226EFF0E2814236E55
:101020007F0E2914246E2150221023102410D8B4CE
:101030001CEF08F01FEF08F0FFFF24EF08F0FFFFA0
:10104000010E2A6E34EF08F0FFFF2CA02AEF08F003
:101050002DEF08F0FFFF34EF08F0FFFF010E2A6EBE
:1010600034EF08F034EF08F0FFFF2A50D8B43BEF1C
:1010700008F03EEF08F0FFFF69EF08F0FFFF010EF8
:101080002C26000E2D222E222F222FA04AEF08F010
:101090004DEF08F0FFFF69EF08F0FFFF2CC021F0D3
:1010A0002DC022F02EC023F02FC024F0243424328F
:1010B00023322232213221C02CF022C02DF023C055
:1010C0002EF024C02FF0304A312A69EF08F069EF82
:1010D00008F0FFFF31BE75EF08F0315009E130280C
:1010E000D8A075EF08F078EF08F0FFFF83EF08F065
:1010F000FFFF000E2C6E000E2D6E800E2E6E7F0EEA
:101100002F6EBEEF08F0FFFF31BE92EF08F03150B6
:1011100006E13004D8B08FEF08F092EF08F0FFFF3F
:101120009FEF08F0FFFF000E2C6E000E2D6E000EDC
:101130002E6E000E2F6E000E256EBEEF08F0FFFF24
:1011400030C02BF0FF0E2C16FF0E2D167F0E2E1624
:10115000000E2F162BA0AFEF08F0B2EF08F0FFFF44
:10116000B6EF08F0FFFF2E8EB6EF08F0FFFFD89025
:101170002B302F6EBEEF08F0BEEF08F0FFFF2550BA
:101180002F122CC019F02DC01AF02EC01BF02FC04A
:101190001CF0CBEF08F0FFFF1200FFFFFFFF5950DC
:1011A000800B666E595059246D6E58AEDAEF08F018
:1011B000DDEF08F0FFFFE1EF08F0FFFF6D80E1EFEA
:1011C00008F0FFFF6D50D8B4E8EF08F0EBEF08F03F
:1011D000FFFF06EF09F0FFFF6D28D8A4F2EF08F03B
:1011E000F5EF08F0FFFF00EF09F0FFFF000E566E6D
:1011F000000E576E000E586E000E596E00EF09F08B
:10120000FFFF588E000E596E11EF09F0FFFF000E20
:10121000566E000E576E000E586E000E596E11EF8E
:1012200009F0FFFF5D50800B661A5D505D246E6E05
:101230005CAE1DEF09F020EF09F0FFFF24EF09F08D
:10124000FFFF6E8024EF09F0FFFF6E50D8B42BEF44
:1012500009F02EEF09F0FFFF49EF09F0FFFF6E28BC
:10126000D8A435EF09F038EF09F0FFFF43EF09F09C
:10127000FFFF000E5A6E000E5B6E000E5C6E000EDD
:101280005D6E43EF09F0FFFF5C8E000E5D6E54EF64
:1012900009F0FFFF000E5A6E000E5B6E000E5C6ED2
:1012A000000E5D6E54EF09F0FFFF5A505B105C10AA
:1012B0005D10D8A45EEF09F061EF09F0FFFF7CEF4D
:1012C00009F0FFFF000E566E000E576E000E586EAE
:1012D000000E596E800E58127F0E59126650591228
:1012E00056C056F057C057F058C058F059C059F082
:1012F00027EF0BF027EF0BF0FFFF6D50D8A483EF23
:1013000009F086EF09F0FFFF9BEF09F0FFFF000EE9
:10131000566E000E576E000E586E000E596E56C077
:1013200056F057C057F058C058F059C059F027EF41
:101330000BF027EF0BF0FFFF6E505E6E5F6A5E1ED4
:101340005F1E5E4A5F2A6D50606E616A5E50602665
:101350005F5061227F0E6024676E000E6120686E10
:1013600056C062F057C063F058C064F059C065F0D1
:10137000000E566E000E576E000E586E000E596E1F
:10138000000E696E000E6A6E000E6B6E000E6C6EC3
:10139000000E6E6E12EF0AF0FFFF6E50D8B4D3EF5E
:1013A00009F0D6EF09F0FFFFF3EF09F0FFFFD89047
:1013B0006236633664366536D890563657365836B8
:1013C00059366CAEE6EF09F0E9EF09F0FFFFEBEFFD
:1013D00009F0FFFF5680FFFFD89069366A366B36FA
:1013E0006C36F3EF09F0FFFF5A50625C5B506358B4
:1013F0005C5064585D506558D8A001EF0AF004EFC6
:101400000AF0FFFF10EF0AF0FFFF6C8C5A50625E8B
:101410005B50635A5C50645A5D50655A10EF0AF095
:10142000FFFF6E2AFFFF190E6E6419EF0AF01CEF22
:101430000AF0FFFFCCEF09F0FFFF1FEF0AF0FFFFFC
:101440006250631064106510D8B429EF0AF02CEFD5
:101450000AF0FFFF4DEF0AF0FFFF69804DEF0AF041
:101460004DEF0AF0FFFFD8905636573658365936AA
:101470006CAE3DEF0AF040EF0AF0FFFF42EF0AF0DA
:10148000FFFF5680FFFFD89069366A366B366C36A0
:101490006706D8A068064DEF0AF0FFFF58AE53EF7D
:1014A0000AF056EF0AF0FFFF32EF0AF0FFFF59EFA4
:1014B0000AF0FFFF000E6E6E6CAE61EF0AF064EF93
:1014C0000AF0FFFF92EF0AF0FFFFFF0E69145E6E55
:1014D000FF0E6A145F6EFF0E6B14606E7F0E6C144D
:1014E000616E5E505F1060106110D8B47AEF0AF040
:1014F0007DEF0AF0FFFF82EF0AF0FFFF010E6E6E34
:1015000092EF0AF0FFFF56A088EF0AF08BEF0AF087
:10151000FFFF92EF0AF0FFFF010E6E6E92EF0AF0EE
:1015200092EF0AF0FFFF6E50D8B499EF0AF09CEFEB
:101530000AF0FFFFC7EF0AF0FFFF010E5626000E6C
:1015400057225822592259A0A8EF0AF0ABEF0AF00F
:10155000FFFFC7EF0AF0FFFF56C05EF057C05FF015
:1015600058C060F059C061F06134613260325F325E
:101570005E325EC056F05FC057F060C058F061C088
:1015800059F0674A682AC7EF0AF0C7EF0AF0FFFF71
:1015900068BED3EF0AF0685009E16728D8A0D3EFFE
:1015A0000AF0D6EF0AF0FFFFE4EF0AF0FFFF000EAB
:1015B000686E6768000E566E000E576E000E586E0D
:1015C000000E596EE4EF0AF0FFFF68BEF3EF0AF079
:1015D000685006E16704D8B0F0EF0AF0F3EF0AF0C4
:1015E000FFFF04EF0BF0FFFF000E686E000E676E4A
:1015F000000E566E000E576E000E586E000E596E9D
:10160000000E666E04EF0BF0FFFF67C06DF06DA07B
:101610000CEF0BF00FEF0BF0FFFF13EF0BF0FFFFE2
:10162000588E17EF0BF0FFFF589E17EF0BF0FFFFE0
:10163000D8906D30596E6650591256C056F057C04A
:1016400057F058C058F059C059F027EF0BF0FFFF82
:101650001200FFFFFFFF82EC17F02F0E016E060E47
:10166000026E8DEC16F0250E016E060E026E8DECEC
:1016700016F0210E0001926F000E946F40EF0BF0F8
:10168000FFFF949A94909684000E1C6E390E1B6E88
:10169000000E1E6EC00E1D6EAD0E1F6E000E206E73
:1016A000000E226E000E216E000E246E320E236E8E
:1016B00028EC13F01BC097F01CC098F0969497C0CC
:1016C00007F098C008F0000E0A6E0A0E096E5EEC74
:1016D00014F007500001956F97C001F098C002F018
:1016E000000E046E0A0E036EEBEC14F001500001C4
:1016F000966F410EAE6F3D0EAF6F9551300FB36FC9
:101700002E0EB46F9651300FB56F000E1C6E210E69
:101710001B6E000E1E6EC00E1D6EA30E1F6E000E01
:10172000206E000E226E020E216E000E246E640EDC
:10173000236E28EC13F01BC099F01CC09AF099C0DE
:1017400007F09AC008F0000E0A6E640E096E5EEC97
:1017500014F007500001936F000E046E640E036EC8
:1017600099C001F09AC002F0EBEC14F001C007F050
:1017700002C008F0000E0A6E0A0E096E5EEC14F04C
:1017800007500001956F99C001F09AC002F0000E59
:10179000046E0A0E036EEBEC14F001500001966F1C
:1017A000660EA46F3D0EA56F9351300FA96F955132
:1017B000300FAA6F9651300FAB6FE10E926E8E0E06
:1017C000C16EAD0E016E000E026E8DEC16F0A30E12
:1017D000016E000E026E8DEC16F03D0E0001806F62
:1017E000E90EFFFFE82EFDD7802FFBD700D000F0D9
:1017F00097C00BF098C00CF0000E0CBEFF0E0D6EE3
:101800000E6E010E2AEC0FF00BC056F00CC057F014
:101810000DC058F00EC059F0000E5A6E000E5B6EEF
:10182000200E5C6E410E5D6ECEEC08F056C082F06C
:1018300057C083F058C084F059C085F0C00EC76E01
:10184000200EC66E000E00019B6F000E9C6F000EF6
:101850009D6F000E9E6F9BC001F09CC002F09DC06A
:1018600003F09EC004F0000E056E000E066E800EA2
:10187000076E3F0E086E3BEC10F0D8A042EF0CF064
:1018800045EF0CF0FFFF4AEF0CF0FFFF6CEF0DF09F
:101890006CEF0DF0FFFF828A829092C0C9FF51EF7A
:1018A0000CF0FFFFC7A057EF0CF05AEF0CF0FFFF52
:1018B00051EF0CF0FFFF5DEF0CF0FFFFDB0E1D6E34
:1018C0000F0E1E6EC90E1F6E400E206E99C00BF0DB
:1018D0009AC00CF0000E0CBEFF0E0D6E0E6E010EC7
:1018E0002AEC0FF00BC019F00CC01AF00DC01BF061
:1018F0000EC01CF059EC06F019C086F01AC087F033
:101900001BC088F01CC089F09BC01DF09CC01EF05D
:101910009DC01FF09EC020F086C019F087C01AF04D
:1019200088C01BF089C01CF059EC06F019C08AF081
:101930001AC08BF01BC08CF01CC08DF08AC06FF0F9
:101940008BC070F08CC071F08DC072F081EC0DF026
:101950006FC08EF070C08FF071C090F072C091F0C7
:101960008EC019F08FC01AF090C01BF091C01CF00F
:1019700082C01DF083C01EF084C01FF085C020F01F
:1019800059EC06F019C09FF01AC0A0F01BC0A1F0DE
:101990001CC0A2F09FC032F0A0C033F0A1C034F050
:1019A000A2C035F0000E366E000E376EA00E386EF7
:1019B000400E396E21EC03F032C09FF033C0A0F02E
:1019C00034C0A1F035C0A2F09FC056F0A0C057F0BF
:1019D000A1C058F0A2C059F0000E5A6E000E5B6E06
:1019E000200E5C6E410E5D6ECEEC08F056C09FF08E
:1019F00057C0A0F058C0A1F059C0A2F09FC019F084
:101A0000A0C01AF0A1C01BF0A2C01CF0000E1D6EF9
:101A1000000E1E6E7F0E1F6E430E206E59EC06F0F8
:101A200019C09FF01AC0A0F01BC0A1F01CC0A2F00A
:101A30009FC001F0A0C002F0A1C003F0A2C004F05A
:101A400001EC11F001500001946F94C0C9FF29EF1F
:101A50000DF0FFFFC7A02FEF0DF032EF0DF0FFFFED
:101A600029EF0DF0FFFF829A82809BC032F09CC06C
:101A700033F09DC034F09EC035F06F0E366E120EFE
:101A8000376E830E386E3A0E396E21EC03F032C099
:101A90009BF033C09CF034C09DF035C09EF09BC0DD
:101AA00001F09CC002F09DC003F09EC004F0000E47
:101AB000056E000E066E800E076E3F0E086E3BEC44
:101AC00010F0D8A066EF0DF069EF0DF0FFFF4AEFC0
:101AD0000CF0FFFF6CEF0DF0FFFF020E0001816FB5
:101AE000310E806F920EFFFFE82EFDD7802FFBD7BF
:101AF000812FF9D700F040EF0BF040EF0BF001EF32
:101B000000F0FFFF000E7F6E72BE8CEF0DF089EFCC
:101B10000DF0FFFFA3EF0DF0FFFF6FC001F070C0ED
:101B200002F071C003F072C004F044EC17F001C081
:101B30006FF002C070F003C071F004C072F0010ECB
:101B40007F6EA3EF0DF0FFFF6FC019F070C01AF0A9
:101B500071C01BF072C01CF0830E1D6EF90E1E6E5C
:101B6000220E1F6E3E0E206E59EC06F019C06FF06B
:101B70001AC070F01BC071F01CC072F06FC050F042
:101B800070C051F071C052F072C053F06FC046F097
:101B900070C047F071C048F072C049F0C2EC11F05B
:101BA00046C054F047C055F048C056F049C057F001
:101BB0001CEC17F050C06FF051C070F052C071F0C3
:101BC00053C072F06FC019F070C01AF071C01BF0F2
:101BD00072C01CF0000E1D6E000E1E6E800E1F6E79
:101BE000400E206E59EC06F019C06FF01AC070F06C
:101BF0001BC071F01CC072F0000E016E000E026E70
:101C0000000E036E400E046E6FC005F070C006F04B
:101C100071C007F072C008F03BEC10F0D8B013EFC1
:101C20000EF016EF0EF0FFFF41EF0EF0FFFF6FC05A
:101C300050F070C051F071C052F072C053F0000EFD
:101C4000546E000E556E000E566E400E576E1CEC14
:101C500017F050C06FF051C070F052C071F053C017
:101C600072F07F50D8B437EF0EF03BEF0EF0FFFF6D
:101C7000010E3DEF0EF0FFFF000EFFFF7F6E41EF04
:101C80000EF0FFFF000E016E000E026E800E036E5E
:101C90003F0E046E6FC005F070C006F071C007F013
:101CA00072C008F03BEC10F0D8B059EF0EF05CEFCA
:101CB0000EF0FFFF83EF0EF0FFFF6FC001F070C06A
:101CC00002F071C003F072C004F044EC17F001C0E0
:101CD00032F002C033F003C034F004C035F0000E1F
:101CE000366E000E376E000E386E400E396E21ECE7
:101CF00003F032C06FF033C070F034C071F035C003
:101D000072F083EF0EF0FFFF6FC019F070C01AF091
:101D100071C01BF072C01CF06FC01DF070C01EF0CF
:101D200071C01FF072C020F059EC06F019C07BF0B2
:101D30001AC07CF01BC07DF01CC07EF07BC046F05A
:101D40007CC047F07DC048F07EC049F0150E4A6E59
:101D5000060E4B6E000E4D6E030E4C6ECFEC13F064
:101D600046C073F047C074F048C075F049C076F0C3
:101D700073C05AF074C05BF075C05CF076C05DF063
:101D8000000E4D6E040E4C6E010E4A6E060E4B6E2A
:101D90007BC046F07CC047F07DC048F07EC049F073
:101DA000CFEC13F046C056F047C057F048C058F08B
:101DB00049C059F0CEEC08F056C077F057C078F023
:101DC00058C079F059C07AF06FC019F070C01AF09D
:101DD00071C01BF072C01CF077C01DF078C01EF0FF
:101DE00079C01FF07AC020F059EC06F019C06FF0EE
:101DF0001AC070F01BC071F01CC072F07F50D8B4D4
:101E000004EF0FF007EF0FF0FFFF1EEF0FF0FFFFE3
:101E10006FC001F070C002F071C003F072C004F036
:101E200044EC17F001C06FF002C070F003C071F015
:101E300004C072F027EF0FF027EF0FF0FFFF6FC025
:101E40006FF070C070F071C071F072C072F0FFFF7F
:101E50001200FFFFFFFF136E1350D8B432EF0FF0E4
:101E600035EF0FF0FFFF5AEF0FF0FFFF0EBE3EEF12
:101E70000FF03BEF0FF0FFFF5AEF0FF0FFFF0BC02B
:101E80000FF00CC010F00DC011F00EC012F00F1EBC
:101E9000101E111E121E0F2A000E102211221222D5
:101EA0000FC015F010C016F011C017F012C018F0D6
:101EB00065EF0FF0FFFF0BC015F00CC016F00DC062
:101EC00017F00EC018F065EF0FF0FFFF0B500C106D
:101ED0000D100E10D8A46FEF0FF072EF0FF0FFFF90
:101EE0007FEF0FF0FFFF000E0B6E000E0C6E000E6A
:101EF0000D6E000E0E6E38EF10F038EF10F0FFFF91
:101F0000960E146E8DEF0FF0FFFF142AD890183242
:101F10001732163215328DEF0FF0FFFF000E151439
:101F20000F6E000E1614106E000E1714116EFE0EBA
:101F30001814126E0F50101011101210D8A4A3EF25
:101F40000FF0A6EF0FF0FFFF84EF0FF0FFFFB8EFE9
:101F50000FF0B8EF0FF0FFFF142A010E1526000E48
:101F6000162217221822D89018321732163215323C
:101F7000FFFF000E15140F6E000E1614106E000EEB
:101F80001714116EFF0E1814126E0F50101011104E
:101F90001210D8A4CEEF0FF0D1EF0FF0FFFFABEF90
:101FA0000FF0FFFFDFEF0FF0DFEF0FF0FFFF140682
:101FB000D8901536163617361836DFEF0FF0FFFFBC
:101FC00017BEE5EF0FF0E8EF0FF0FFFFF5EF0FF0B2
:101FD000FFFF020E1460EFEF0FF0F2EF0FF0FFFFC4
:101FE000D6EF0FF0FFFFF5EF0FF0FFFF14B0FBEFA0
:101FF0000FF0FEEF0FF0FFFF02EF10F0FFFF179E54
:1020000002EF10F0FFFFD890143214C00FF0106AE6
:10201000116A126A0FC012F0116A106A0F6A0F502B
:102020001512105016121150171212501812135088
:10203000D8B41DEF10F020EF10F0FFFF2DEF10F0DF
:10204000FFFF0EBE29EF10F026EF10F0FFFF2DEF7F
:1020500010F0FFFF188E2DEF10F0FFFF15C00BF0F2
:1020600016C00CF017C00DF018C00EF038EF10F0CD
:10207000FFFF1200FFFFFFFF000E0114096E000EAC
:1020800002140A6E800E03140B6E7F0E04140C6E85
:1020900009500A100B100C10D8A451EF10F054EF97
:1020A00010F0FFFF5FEF10F0FFFF000E016E000E5B
:1020B000026E000E036E000E046E5FEF10F0FFFF65
:1020C000000E0514096E000E06140A6E800E071429
:1020D0000B6E7F0E08140C6E09500A100B100C10BA
:1020E000D8A475EF10F078EF10F0FFFF83EF10F039
:1020F000FFFF000E056E000E066E000E076E000E4E
:10210000086E83EF10F0FFFF04AE89EF10F08CEF44
:1021100010F0FFFFACEF10F0FFFF01C009F002C0AC
:102120000AF003C00BF004C00CF0091E0A1E0B1EBF
:102130000C1E092A000E0A220B220C22000E092472
:10214000016E000E0A20026E000E0B20036E800E40
:102150000C20046EACEF10F0FFFF08AEB2EF10F0F1
:10216000B5EF10F0FFFFD3EF10F0FFFF05C009F04F
:1021700006C00AF007C00BF008C00CF0091E0A1ECA
:102180000B1E0C1E092A000E0A220B220C22000E26
:102190000924056E000E0A20066E000E0B20076E45
:1021A000800E0C20086EFFFF000E011A000E021AAE
:1021B000000E031A800E041A000E051A000E061AED
:1021C000000E071A800E081A0550015C06500258CE
:1021D0000750035808500458D8B0F1EF10F0F4EF4E
:1021E00010F0FFFFF8EF10F0FFFFD890FEEF10F0B7
:1021F000FFFFD880FEEF10F0FEEF10F0FFFF12009F
:10220000FFFFFFFF033404340A6E0A50D8A40BEF1B
:1022100011F00EEF11F0FFFF1BEF11F0FFFF000EAA
:10222000016E000E026E000E036E000E046EBFEF14
:1022300011F0BFEF11F0FFFF01C005F002C006F082
:1022400003C007F004C008F0200E2DEF11F0FFFFCF
:10225000D8900832073206320532FFFFE82E27EF0A
:1022600011F00550096E038EFF0E0116FF0E0216C7
:10227000FF0E0316000E0416960E0A5E0ABE46EF07
:1022800011F043EF11F0FFFF6EEF11F0FFFF0A5066
:10229000800A970FD8B04FEF11F052EF11F0FFFF07
:1022A00061EF11F0FFFF000E016E000E026E000ED6
:1022B000036E000E046EBFEF11F0BFEF11F061EF7F
:1022C00011F0FFFFD89004320332023201320A3E8D
:1022D00061EF11F09FEF11F09FEF11F0FFFF1F0E64
:1022E0000A6475EF11F078EF11F0FFFF90EF11F035
:1022F000FFFF000E016E000E026E000E036E000E58
:10230000046EBFEF11F0BFEF11F090EF11F0FFFF7F
:10231000D89001360236033604360A0690EF11F0E3
:10232000FFFF0A50D8A497EF11F09AEF11F0FFFFCA
:1023300087EF11F0FFFF9FEF11F09FEF11F0FFFF0C
:102340000950D8B4A6EF11F0A9EF11F0FFFFB4EFD8
:1023500011F0FFFF041E031E021E016C000E02227C
:1023600003220422B4EF11F0FFFF01C001F002C00C
:1023700002F003C003F004C004F0BFEF11F0FFFF50
:102380001200FFFFFFFF46C00DF047C00EF048C02F
:102390000FF049C010F04E0E116E000E126ED7EC09
:1023A00015F04FBED9EF11F0D6EF11F0FFFFFCEFA3
:1023B00011F0FFFF49BEE2EF11F0DFEF11F0FFFF78
:1023C000EFEF11F0FFFF000E466E000E476E800E1D
:1023D000486EBF0E496E74EF12F074EF12F0FFFFFB
:1023E000000E466E000E476E000E486E000E496EDF
:1023F00074EF12F074EF12F0FFFF4F500AE11D0E60
:102400004E5CD8A006EF12F009EF12F0FFFF14EFB8
:1024100012F0FFFF46C046F047C047F048C048F002
:1024200049C049F074EF12F0FFFF46C001F047C009
:1024300002F048C003F049C004F001EC11F001C003
:102440000BF002C00CF003C00DF004C00EF0010E42
:102450002AEC0FF00BC04AF00CC04BF00DC04CF052
:102460000EC04DF046C001F047C002F048C003F076
:1024700049C004F04AC005F04BC006F04CC007F05C
:102480004DC008F03BEC10F0D8B049EF12F04CEF23
:1024900012F0FFFF6BEF12F0FFFF4AC032F04BC0AB
:1024A00033F04CC034F04DC035F0000E366E000EE7
:1024B000376E800E386EBF0E396E21EC03F032C0DD
:1024C00046F033C047F034C048F035C049F074EFEF
:1024D00012F074EF12F0FFFF4AC046F04BC047F015
:1024E0004CC048F04DC049F0FFFF1200FFFFFFFF56
:1024F000000E166E14BE82EF12F07FEF12F0FFFF97
:102500008FEF12F0FFFF141E131E121E116C000E2F
:10251000122213221422010E166E8FEF12F0FFFF0B
:1025200010BE98EF12F095EF12F0FFFFA5EF12F03A
:10253000FFFF101E0F1E0E1E0D6C000E0E220F222E
:102540001022010E161AA5EF12F0FFFF000E176EF3
:10255000000E186E000E196E000E1A6E1150121039
:1025600013101410D8B4B7EF12F0BAEF12F0FFFF47
:1025700005EF13F0FFFF010E156EC8EF12F0FFFF1D
:10258000D8901136123613361436152AC8EF12F0C9
:10259000FFFF14AECEEF12F0D1EF12F0FFFFBFEF4E
:1025A00012F0FFFFD6EF12F0D6EF12F0FFFFD89037
:1025B0001736183619361A3611500D5C12500E584F
:1025C00013500F5814501058D8A0E9EF12F0ECEF48
:1025D00012F0FFFFF8EF12F0FFFF11500D5E1250E6
:1025E0000E5A13500F5A1450105A1780F8EF12F069
:1025F000FFFFD8901432133212321132152ED6EF5B
:1026000012F005EF13F005EF13F0FFFF1650D8B4EA
:102610000CEF13F00FEF13F0FFFF1AEF13F0FFFFB3
:102620001A1E191E181E176C000E182219221A22C3
:102630001AEF13F0FFFF17C00DF018C00EF019C00D
:102640000FF01AC010F025EF13F0FFFF1200FFFF8C
:10265000FFFF000E2B6E000E2C6E000E2D6E000E76
:102660002E6E000E2F6E000E306E000E316E000EBC
:10267000326E000E336E000E346E000E356E000E9C
:10268000366E1BC0C2FF1DC0C1FF030E256E6F0E4C
:10269000FFFFE82EFDD7252EFBD7C284030E256E43
:1026A0006F0EFFFFE82EFDD7252EFBD758EF13F056
:1026B000FFFFC2B45EEF13F061EF13F0FFFF58EFBE
:1026C00013F0FFFF64EF13F0FFFFC3502B6E2C6A73
:1026D0002D6A2E6AC4502F6E306A316A326A2FC05A
:1026E00026F030C027F031C028F0256A25C033F02D
:1026F00026C034F027C035F028C036F02B503326E2
:102700002C5034222D5035222E50362221C025F057
:1027100022C026F0251E261E254A262A23502526BD
:102720002450262225C001F026C002F0000E02BE71
:10273000FF0E036E046E33C005F034C006F035C0E2
:1027400007F036C008F0DBEC16F001C00DF002C057
:102750000EF003C00FF004C010F0FF0E116E030E58
:10276000126E000E136E000E146E77EC12F02150F4
:102770000D24296E22500E202A6E7A0E256ED40E5C
:10278000FFFFE82EFDD7252EFBD700D029C01BF078
:102790002AC01CF0CCEF13F0FFFF1200FFFFFFFF79
:1027A0004CC04EF04DC04FF0D8904E364F36D890BA
:1027B0004E364F364AC050F04BC051F04E50502666
:1027C0004F50512250C0F6FF51C0F7FF0900FFFFE4
:1027D000F5CF52F00900FFFFF5CF53F00900FFFFDE
:1027E000F5CF54F00A00FFFFF5CF55F048EF14F095
:1027F000FFFF52C01DF053C01EF054C01FF055C063
:1028000020F046C019F047C01AF048C01BF049C07C
:102810001CF059EC06F019C032F01AC033F01BC09E
:1028200034F01CC035F04C06D8A04D064CC04EF01C
:102830004DC04FF0D8904E364F36D8904E364F366A
:102840004AC050F04BC051F04E5050264F505122CC
:1028500050C0F6FF51C0F7FF0900FFFFF5CF36F07B
:102860000900FFFFF5CF37F00900FFFFF5CF38F083
:102870000A00FFFFF5CF39F021EC03F032C052F02F
:1028800033C053F034C054F035C055F048EF14F065
:10289000FFFF4C504D10D8A450EF14F053EF14F03C
:1028A000FFFFF8EF13F0FFFF52C046F053C047F0B0
:1028B00054C048F055C049F01200FFFFFFFF000E62
:1028C0000C6E0ABE69EF14F066EF14F0FFFF72EFB2
:1028D00014F0FFFF096C0A1ED8B00A2A010E0C6E14
:1028E00072EF14F0FFFF08BE7BEF14F078EF14F0E6
:1028F000FFFF84EF14F0FFFF076C081ED8B0082A12
:10290000010E0C1A84EF14F0FFFF000E0E6E000E85
:102910000D6E09500A10D8B490EF14F093EF14F034
:10292000FFFFD0EF14F0FFFF010E0B6E9FEF14F0CE
:10293000FFFFD89009360A360B2A9FEF14F0FFFFED
:102940000AAEA5EF14F0A8EF14F0FFFF98EF14F013
:10295000FFFFADEF14F0ADEF14F0FFFFD8900D3690
:102960000E360950075C0A500858D8A0BAEF14F088
:10297000BDEF14F0FFFFC5EF14F0FFFF0950075E35
:102980000A50085A0D80C5EF14F0FFFFD8900A32A4
:1029900009320B2EADEF14F0D0EF14F0D0EF14F09D
:1029A000FFFF0C50D8B4D7EF14F0DAEF14F0FFFFAC
:1029B000E1EF14F0FFFF0D6C0E1ED8B00E2AE1EF10
:1029C00014F0FFFF0DC007F00EC008F0E8EF14F0A0
:1029D000FFFF1200FFFFFFFF000E066E02BEF6EFC4
:1029E00014F0F3EF14F0FFFFFFEF14F0FFFF016CA2
:1029F000021ED8B0022A010E066EFFEF14F0FFFF90
:102A000004BE08EF15F005EF15F0FFFF0FEF15F00E
:102A1000FFFF036C041ED8B0042A0FEF15F0FFFF70
:102A200003500410D8B417EF15F01AEF15F0FFFF9C
:102A300053EF15F0FFFF010E056E26EF15F0FFFFB7
:102A4000D89003360436052A26EF15F0FFFF04AEB2
:102A50002CEF15F02FEF15F0FFFF1FEF15F0FFFF24
:102A600034EF15F034EF15F0FFFF0350015C045014
:102A70000258D8A03EEF15F041EF15F0FFFF48EFE8
:102A800015F0FFFF0350015E0450025A48EF15F0A5
:102A9000FFFFD89004320332052E34EF15F053EFC8
:102AA00015F053EF15F0FFFF0650D8B45AEF15F0AC
:102AB0005DEF15F0FFFF64EF15F0FFFF016C021EE4
:102AC000D8B0022A64EF15F0FFFF01C001F002C088
:102AD00002F06BEF15F0FFFF1200FFFFFFFF000E8B
:102AE0000114096E000E02140A6E800E03140B6EA0
:102AF0007F0E04140C6E09500A100B100C10D8A491
:102B000084EF15F087EF15F0FFFF92EF15F0FFFF50
:102B1000000E016E000E026E000E036E000E046EBB
:102B200092EF15F0FFFF000E0514096E000E06145B
:102B30000A6E800E07140B6E7F0E08140C6E09507F
:102B40000A100B100C10D8A4A8EF15F0ABEF15F07D
:102B5000FFFFB6EF15F0FFFF000E056E000E066ECC
:102B6000000E076E000E086EB6EF15F0FFFF055061
:102B7000011810E1065002180DE1075003180AE190
:102B800008500418D8B4C7EF15F0CAEF15F0FFFFCE
:102B9000CEEF15F0FFFFD890D4EF15F0FFFFD880EF
:102BA000D4EF15F0D4EF15F0FFFF1200FFFFFFFF89
:102BB0000DC001F00EC002F00FC003F010C004F011
:102BC000000E056E000E066E000E076E000E086EFB
:102BD0006EEC15F0D8A0EFEF15F0F2EF15F0FFFF57
:102BE000FFEF15F0FFFF11C0D9FF12C0DAFF000E92
:102BF000DE6E000EDD6E36EF16F036EF16F0FFFFDC
:102C000010507F0B136E146AD8901336143611C00F
:102C1000D9FF12C0DAFF13C0DEFF14C0DDFF0FBE04
:102C200014EF16F019EF16F0FFFF136A132A1BEFCB
:102C300016F0FFFF136AFFFF135011C0D9FF12C037
:102C4000DAFFDE12000EDD1211C0D9FF12C0DAFF6A
:102C5000820EDE26FF0EDD22108010821084108688
:102C60001088108A109C0F9E36EF16F0FFFF12009E
:102C7000FFFFFFFF010E026EF40E016EA80EFFFFB4
:102C8000E82EFDD7012EFBD7022EF9D700D0849075
:102C9000390E036E060E046E76EF16F0FFFF03C0CA
:102CA000F6FF04C0F7FF0800FFFFF5CF05F08482B0
:102CB00005C083FF8492190E016E5D0EFFFFE82EA2
:102CC000FDD7012EFBD7053AF00E0516848205C00C
:102CD00083FF8492190E016E5D0EFFFFE82EFDD773
:102CE000012EFBD7034A042A76EF16F0FFFF03C03C
:102CF000F6FF04C0F7FF0800FFFFF5500009D8A455
:102D000084EF16F087EF16F0FFFF4EEF16F0FFFF8F
:102D10008AEF16F0FFFF1200FFFFFFFF8490BAEF6B
:102D200016F0FFFF01C0F6FF02C0F7FFF86A050EBC
:102D3000F76404D00800FFFFF55005D0F6CFD9FFA7
:102D4000F7CFDAFFDF50046E848204C083FF8492E1
:102D5000043AF00E0416848204C083FF8492190E94
:102D6000036E5D0EFFFFE82EFDD7032EFBD7848098
:102D7000014A022AFFFF01C0F6FF02C0F7FFF86A0E
:102D8000050EF76404D00800FFFFF55005D0F6CF1C
:102D9000D9FFF7CFDAFFDF500009D8A4D2EF16F041
:102DA000D5EF16F0FFFF91EF16F0FFFFD8EF16F00A
:102DB000FFFF1200FFFFFFFF000E096E000E0A6EFC
:102DC000000E0B6E000E0C6EE6EF16F0FFFF01A07A
:102DD000ECEF16F0EFEF16F0FFFFFAEF16F0FFFF43
:102DE0000550092606500A2207500B2208500C22D3
:102DF000FAEF16F0FFFFD89005360636073608368C
:102E0000D890043203320232013201500210031012
:102E10000410D8A40EEF17F011EF17F0FFFFE6EF44
:102E200016F0FFFF09C001F00AC002F00BC003F06A
:102E30000CC004F01200FFFFFFFF000E541A000E3A
:102E4000551A000E561A800E571A50C032F051C053
:102E500033F052C034F053C035F054C036F055C092
:102E600037F056C038F057C039F021EC03F032C0CB
:102E700050F033C051F034C052F035C053F041EF40
:102E800017F0FFFF1200FFFFFFFF015002100310B9
:102E90000410D8B44EEF17F051EF17F0FFFF5CEFBE
:102EA00017F0FFFF000E011A000E021A000E031A9F
:102EB000800E041A5CEF17F0FFFF01C001F002C0A2
:102EC00002F003C003F004C004F067EF17F0FFFF47
:102ED0001200FFFF300EF66E2F0EF76E000EF86E2A
:102EE00000EEA3F010EE14F00900F5CFEEFFE55070
:102EF000E150FAE10001B86BB76B000EF86E00010B
:102F00002AEF0BF0FFFF8E0EC16EE10E926EDC0E0B
:102F1000936ED00E946E0F0E956E000E966E100E80
:102F2000806E80968094809239EC16F01200FFFF3C
:102F3000C0202020202020202000802020202020B1
:062F400020202000FFFF2D
:020000040020DA
:08000000FFFFFFFFFFFFFFFF00
:020000040030CA
:0E000000FF220D0EFF0181FF0FC00FE00F4029
:00000001FF
