:020000040000FA
:0600000000F023EF07F001
:1006000000C020202020202020200080202020202A
:100610002020202000333228010C06000000FFFFBC
:10062000000E276E000E286E000E296E000E2A6E38
:10063000000E2B6E000E2C6E000E2D6E000E2E6E18
:10064000000E316E000E326E000E336E000E346EF0
:100650001BC0C2FF1DC0C1FF030E236E6F0EFFFF44
:10066000E82EFDD7232EFBD7C284030E236E6F0E18
:10067000FFFFE82EFDD7232EFBD73FEF03F0FFFF50
:10068000C2B445EF03F048EF03F0FFFF3FEF03F084
:10069000FFFF4BEF03F0FFFFC350276E286A296A64
:1006A0002A6AC4502B6E2C6A2D6A2E6A2BC024F045
:1006B0002CC025F02DC026F0236A23C031F024C0C1
:1006C00032F025C033F026C034F0275031262850B0
:1006D0003222295033222A50342221C001F022C074
:1006E00002F0000E02BEFF0E036E046E31C005F074
:1006F00032C006F033C007F034C008F0CCEC06F08E
:1007000001C00DF002C00EF003C00FF004C010F0E5
:10071000FF0E116E030E126E000E136E000E146E9D
:10072000E9EC03F00DC035F00EC036F035C001F035
:1007300036C002F0000E046E0A0E036E9AEC04F04E
:1007400001502F6E35C001F036C002F0000E046E6D
:100750000A0E036E27EC05F00150306E20EE02F019
:100760001F50D9262050DA222F50300FDF6E20EE96
:1007700003F01F50D9262050DA222E0EDF6E20EE15
:1007800004F01F50D9262050DA223050300FDF6E8F
:1007900020EE06F01F50D9262050DA22560EDF6ECA
:1007A0008E0EC16E1FC001F020C002F07EEC06F07C
:1007B0003D0E236EEA0EFFFFE82EFDD7232EFBD75A
:1007C00035C01BF036C01CF0E6EF03F0FFFF12004F
:1007D000FFFFFFFF000E166E14BEF4EF03F0F1EF03
:1007E00003F0FFFF01EF04F0FFFF141E131E121EA3
:1007F000116C000E122213221422010E166E01EF4C
:1008000004F0FFFF10BE0AEF04F007EF04F0FFFF53
:1008100017EF04F0FFFF101E0F1E0E1E0D6C000ED2
:100820000E220F221022010E161A17EF04F0FFFFFE
:10083000000E176E000E186E000E196E000E1A6E66
:100840001150121013101410D8B429EF04F02CEF2B
:1008500004F0FFFF77EF04F0FFFF010E156E3AEF93
:1008600004F0FFFFD8901136123613361436152ACD
:100870003AEF04F0FFFF14AE40EF04F043EF04F052
:10088000FFFF31EF04F0FFFF48EF04F048EF04F002
:10089000FFFFD8901736183619361A3611500D5CEE
:1008A00012500E5813500F5814501058D8A05BEF28
:1008B00004F05EEF04F0FFFF6AEF04F0FFFF115059
:1008C0000D5E12500E5A13500F5A1450105A1780C2
:1008D0006AEF04F0FFFFD890143213321232113253
:1008E000152E48EF04F077EF04F077EF04F0FFFFE8
:1008F0001650D8B47EEF04F081EF04F0FFFF8CEFC8
:1009000004F0FFFF1A1E191E181E176C000E182285
:1009100019221A228CEF04F0FFFF17C00DF018C047
:100920000EF019C00FF01AC010F097EF04F0FFFF9F
:100930001200FFFFFFFF000E066E04BEA5EF04F0DD
:10094000A2EF04F0FFFFAEEF04F0FFFF036C041E04
:10095000D8B0042A010E066EAEEF04F0FFFF02BE0F
:10096000B7EF04F0B4EF04F0FFFFC0EF04F0FFFFB7
:10097000016C021ED8B0022A010E061AC0EF04F064
:10098000FFFF000E086E000E076E03500410D8B46F
:10099000CCEF04F0CFEF04F0FFFF0CEF05F0FFFF0A
:1009A000010E056EDBEF04F0FFFFD890033604362E
:1009B000052ADBEF04F0FFFF04AEE1EF04F0E4EF03
:1009C00004F0FFFFD4EF04F0FFFFE9EF04F0E9EFDC
:1009D00004F0FFFFD890073608360350015C04503E
:1009E0000258D8A0F6EF04F0F9EF04F0FFFF01EF92
:1009F00005F0FFFF0350015E0450025A078001EF2B
:100A000005F0FFFFD89004320332052EE9EF04F021
:100A10000CEF05F00CEF05F0FFFF0650D8B413EF14
:100A200005F016EF05F0FFFF1DEF05F0FFFF076C67
:100A3000081ED8B0082A1DEF05F0FFFF07C001F01F
:100A400008C002F024EF05F0FFFF1200FFFFFFFFD8
:100A5000000E066E02BE32EF05F02FEF05F0FFFF2D
:100A60003BEF05F0FFFF016C021ED8B0022A010E19
:100A7000066E3BEF05F0FFFF04BE44EF05F041EFCB
:100A800005F0FFFF4BEF05F0FFFF036C041ED8B02D
:100A9000042A4BEF05F0FFFF03500410D8B453EFC6
:100AA00005F056EF05F0FFFF8FEF05F0FFFF010E99
:100AB000056E62EF05F0FFFFD89003360436052A75
:100AC00062EF05F0FFFF04AE68EF05F06BEF05F095
:100AD000FFFF5BEF05F0FFFF70EF05F070EF05F033
:100AE000FFFF0350015C04500258D8A07AEF05F0D4
:100AF0007DEF05F0FFFF84EF05F0FFFF0350015E7F
:100B00000450025A84EF05F0FFFFD89004320332FC
:100B1000052E70EF05F08FEF05F08FEF05F0FFFF6A
:100B20000650D8B496EF05F099EF05F0FFFFA0EF5F
:100B300005F0FFFF016C021ED8B0022AA0EF05F0FD
:100B4000FFFF01C001F002C002F0A7EF05F0FFFFB8
:100B50001200FFFFFFFF0DEC07F00B0E016E060EFB
:100B6000026E7EEC06F0010E016E060E026E7EEC49
:100B700006F0BBEF05F0FFFF9684000E1C6E390EE9
:100B80001B6E000E1E6EC00E1D6E460E1F6E000EFA
:100B9000206E000E226E320E216E0FEC03F01BC091
:100BA00038F01CC039F09694000E1C6E210E1B6E9E
:100BB000000E1E6EC00E1D6E3C0E1F6E000E206ECF
:100BC000000E226E320E216E0FEC03F01BC03AF0C5
:100BD0001CC03BF0000E926E38503A5C3B50800ACD
:100BE000376E3950800A3758D8B0F9EF05F0FCEF6E
:100BF00005F0FFFF02EF06F0FFFF808680948092F1
:100C000021EF06F0FFFF3A50385C3950800A376E0A
:100C10003B50800A3758D8B010EF06F013EF06F0BB
:100C2000FFFF19EF06F0FFFF80968094808221EF8E
:100C300006F0FFFF80968084809221EF06F021EF7E
:100C400006F0FFFFE10E926EBBEF05F0BBEF05F083
:100C500001EF00F0FFFF010E026EF40E016EA80E10
:100C6000FFFFE82EFDD7012EFBD7022EF9D700D0CB
:100C70008490150E036E060E046E67EF06F0FFFFFC
:100C800003C0F6FF04C0F7FF0800FFFFF5CF05F033
:100C9000848205C083FF8492190E016E5D0EFFFFF2
:100CA000E82EFDD7012EFBD7053AF00E05168482FB
:100CB00005C083FF8492190E016E5D0EFFFFE82EC2
:100CC000FDD7012EFBD7034A042A67EF06F0FFFF8A
:100CD00003C0F6FF04C0F7FF0800FFFFF55000094E
:100CE000D8A475EF06F078EF06F0FFFF3FEF06F0AF
:100CF000FFFF7BEF06F0FFFF1200FFFFFFFF849076
:100D0000ABEF06F0FFFF01C0F6FF02C0F7FFF86A85
:100D1000050EF76404D00800FFFFF55005D0F6CFAC
:100D2000E9FFF7CFEAFFEF50046E848204C083FF2F
:100D30008492043AF00E0416848204C083FF8492E5
:100D4000190E036E5D0EFFFFE82EFDD7032EFBD7B5
:100D50008480014A022AFFFF01C0F6FF02C0F7FFAC
:100D6000F86A050EF76404D00800FFFFF55005D0BF
:100D7000F6CFE9FFF7CFEAFFEF500009D8A4C3EFA1
:100D800006F0C6EF06F0FFFF82EF06F0FFFFC9EFA7
:100D900006F0FFFF1200FFFFFFFF000E096E000EBE
:100DA0000A6E000E0B6E000E0C6ED7EF06F0FFFF02
:100DB00001A0DDEF06F0E0EF06F0FFFFEBEF06F03D
:100DC000FFFF0550092606500A2207500B22085043
:100DD0000C22EBEF06F0FFFFD890053606360736FB
:100DE0000836D89004320332023201320150021028
:100DF00003100410D8A4FFEF06F002EF07F0FFFF86
:100E0000D7EF06F0FFFF09C001F00AC002F00BC0E7
:100E100003F00CC004F01200FFFFFFFF8E0EC16E46
:100E2000E10E926EDC0E936ED00E946E0F0E956EE8
:100E3000000E966E100E806E8096809480922AEC42
:100E400006F01200FFFF700EF66E0E0EF76E000E2B
:100E5000F86E00EE3CF010EE14F00900F5CFEEFF56
:100E6000E550E150FAE1000EF86E0001AAEF05F03E
:100E7000C020202020202020200080202020202092
:060E800020202000FFFF0E
:020000040020DA
:08000000FFFFFFFFFFFFFFFF00
:020000040030CA
:0E000000FF220D0EFF0181FF0FC00FE00F4029
:00000001FF
