:020000040000FA
:0400000057EF00F0C6
:060008005682C0ED1AF063
:100018005680D8CFAFF0E8CFB0F0E0CFB1F0E9CF5D
:10002800B2F0EACFB3F0D9CFB4F0DACFB5F0F3CF6E
:10003800B6F0F4CFB7F0F6CFB8F0F7CFB9F0F8CF05
:10004800BAF0F5CFBBF0F2AA2CEF00F02EEF00F0DB
:100058003BEF00F0F2A433EF00F035EF00F03BEF98
:1000680000F0E8EC08F0D1EC1DF03BEF00F0BBC06D
:10007800F5FFBAC0F8FFB9C0F7FFB8C0F6FFB7C0C0
:10008800F4FFB6C0F3FFB5C0DAFFB4C0D9FFB3C000
:10009800EAFFB2C0E9FFB1C0E0FFB0C0E8FFAFC0FF
:1000A800D8FF56901000A3EF1EF000018351800B7B
:1000B800506E83518325526E82AF65EF00F067EF73
:1000C80000F06AEF00F052806AEF00F05250D8B4A6
:1000D80070EF00F072EF00F089EF00F05228D8A41A
:1000E80078EF00F07AEF00F084EF00F0000E806FF8
:1000F800000E816F000E826F000E836F84EF00F098
:10010800828F000E836F93EF00F0000E806F000E59
:10011800816F000E826F000E836F93EF00F087519E
:10012800800B516E50505118D8B49DEF00F09FEFDE
:1001380000F0A2EF00F0508CA2EF00F08751872565
:10014800516E86AFAAEF00F0ACEF00F0AFEF00F011
:100158005180AFEF00F05150D8B4B5EF00F0B7EFD1
:1001680000F0CEEF00F05128D8A4BDEF00F0BFEFAB
:1001780000F0C9EF00F0000E846F000E856F000ECE
:10018800866F000E876FC9EF00F0868F000E876FAD
:10019800D8EF00F0000E846F000E856F000E866F9A
:1001A800000E876FD8EF00F05250515CD8B0DFEFE7
:1001B80000F0E1EF00F00CEF01F050ACE6EF00F0DA
:1001C800E8EF00F0ECEF00F0800E501AECEF00F0D2
:1001D80052C053F051C052F053C051F080C053F098
:1001E80084C080F053C084F081C053F085C081F092
:1001F80053C085F082C053F086C082F053C086F0A9
:1002080083C053F087C083F053C087F00CEF01F030
:10021800000E536E5250886F896B881F891F884B58
:10022800892B51508A6F8B6B88518A2789518B2370
:100238008BBF28EF01F08B5109E11A0E8A5DD8A017
:1002480028EF01F02AEF01F067EF01F080518111EA
:1002580082118311D8A433EF01F036EF01F0010EBB
:1002680037EF01F0000E536E000E806F000E816FA5
:10027800000E826F000E836F51C052F072EF01F0D2
:1002880067EF01F053A04BEF01F04DEF01F053EF92
:1002980001F0D89053300109536E57EF01F0D89010
:1002A800533257EF01F080A15CEF01F05EEF01F0EF
:1002B80061EF01F0538E61EF01F0833583338233B0
:1002C80081338033522A5150525CD8A06EEF01F02E
:1002D80070EF01F046EF01F072EF01F050BC77EFDC
:1002E80001F079EF01F0C1EF01F05250D8A47FEF8F
:1002F80001F081EF01F08DEF01F0000E806F000E2C
:10030800816F000E826F000E836F1BEF03F01BEFEF
:1003180003F0845180278551812386518223875198
:10032800832383A19AEF01F09CEF01F071EF02F0B3
:1003380053A0A1EF01F0A3EF01F0A9EF01F0D890CD
:1003480053300109536EADEF01F0D8905332ADEF41
:1003580001F080A1B2EF01F0B4EF01F0B7EF01F0C6
:10036800538EB7EF01F08335833382338133803383
:10037800522A71EF02F071EF02F08451805D8551CD
:100388008159865182598351800A886F8751800A22
:100398008859D8B0D2EF01F0D4EF01F012EF02F093
:1003A80080C088F081C089F082C08AF083C08BF059
:1003B800881F891F8A1F8B1F882B000E89238A2379
:1003C8008B23845188258C6F855189218D6F8651A7
:1003D8008A218E6F87518B218F6FFF0E8C25806F3E
:1003E800FF0E8D21816FFF0E8E21826FFF0E8F21F0
:1003F800836F800E501A536C5350D8A406EF02F046
:1004080008EF02F01AEF02F0010E8027000E812398
:10041800822383231AEF02F01AEF02F08451805FDF
:100428008551815B8651825B8751835B8051811145
:1004380082118311D8A423EF02F025EF02F066EFB2
:1004480002F05350D8A42BEF02F02DEF02F066EF24
:1004580002F0000E806F000E816F000E826F000E9A
:10046800836F1BEF03F01BEF03F066EF02F0D890E9
:10047800803781378237833753AE45EF02F047EF35
:1004880002F04AEF02F080814AEF02F053A04FEFEA
:1004980002F051EF02F055EF02F0D880533659EFD1
:1004A80002F0D890533659EF02F05250D8B45FEFAB
:1004B80002F061EF02F066EF02F0520666EF02F01A
:1004C80066EF02F082AF6BEF02F06DEF02F03BEFE8
:1004D80002F071EF02F071EF02F0000E516E53AEB0
:1004E80078EF02F07AEF02F096EF02F053C088F04E
:1004F8007F0E8817D8B483EF02F085EF02F089EFFA
:1005080002F0010E516E96EF02F080A18EEF02F01C
:1005180090EF02F096EF02F0010E516E96EF02F0A6
:1005280096EF02F05150D8B49CEF02F09EEF02F023
:10053800CFEF02F0010E8027000E81238223832350
:1005480083A1A9EF02F0ABEF02F0CFEF02F080C079
:1005580088F081C089F082C08AF083C08BF08B3527
:100568008B338A338933883388C080F089C081F01F
:100578008AC082F08BC083F05228D8B4C6EF02F04C
:10058800C8EF02F0CFEF02F0522ACFEF02F0CFEF20
:1005980002F0CFEF02F05228D8B4D5EF02F0D7EF2F
:1005A80002F0E1EF02F05250D8A4DDEF02F0DFEFE5
:1005B80002F0F7EF02F0E1EF02F0000E806F000E9C
:1005C800816F000E826F000E836F5250D8A4EFEF38
:1005D80002F0F1EF02F0F7EF02F0000E506EF7EFC5
:1005E80002F0F7EF02F052A0FCEF02F0FEEF02F08B
:1005F80001EF03F0828F04EF03F0829F04EF03F012
:10060800D8905230836F50AE0CEF03F00EEF03F02A
:1006180011EF03F0838F11EF03F080C080F081C0E9
:1006280081F082C082F083C083F01BEF03F01200D8
:100638003A50800B436E3A503A24496E39AE27EF50
:1006480003F029EF03F02CEF03F049802CEF03F0BF
:100658004950D8B432EF03F034EF03F049EF03F018
:100668004928D8A43AEF03F03CEF03F046EF03F033
:10067800000E376E000E386E000E396E000E3A6EA0
:1006880046EF03F0398E53EF03F0000E376E000E7D
:10069800386E000E396E000E3A6E53EF03F03E507E
:1006A800800B431A3E503E24486E3DAE5EEF03F089
:1006B80060EF03F063EF03F0488063EF03F0485006
:1006C800D8B469EF03F06BEF03F080EF03F048282C
:1006D800D8A471EF03F073EF03F07DEF03F0000E81
:1006E8003B6E000E3C6E000E3D6E000E3E6E7DEFC2
:1006F80003F03D8E88EF03F0000E3B6E000E3C6E5B
:10070800000E3D6E000E3E6E4850D8B48EEF03F0DA
:1007180090EF03F09AEF03F04950D8A496EF03F056
:1007280098EF03F0A6EF03F09AEF03F0000E376E90
:10073800000E386E000E396E000E3A6E52EF05F05C
:1007480052EF05F03D503702F3CF4EF0F4CF4FF0A3
:100758004E50446E456A466A476A4F504A6E4B6A25
:100768004C6A4D6A3C503802F3CF4EF0F4CF4FF04C
:100778004E504426000E4522462247224F504A2614
:10078800000E4B224C224D223B503902F3CF4EF043
:10079800F4CF4FF04E504426000E45224622472201
:1007A8004F504A26000E4B224C224D2246C047F09D
:1007B80045C046F044C045F0446A3B503802F3CF88
:1007C8004EF0F4CF4FF04E5044264F504522000EC5
:1007D8004622000E47223C503702F3CF4EF0F4CFAA
:1007E8004FF04E5044264F504522000E4622000E30
:1007F800472246C047F045C046F044C045F0446A29
:100808003B503702F3CF4EF0F4CF4FF04E50442612
:100818004F504522000E4622000E47223D50380216
:10082800F3CF4EF0F4CF4FF04E504A264F504B22A4
:10083800000E4C22000E4D223C503902F3CF4EF0F0
:10084800F4CF4FF04E504A264F504B22000E4C2208
:10085800000E4D223D503902F3CF4EF0F4CF4FF049
:100868004E503F6E4F50406E416A426A41C042F05E
:1008780040C041F03FC040F03F6A3F504A264050D8
:100888004B2241504C2242504D2244C03FF045C0BB
:1008980040F046C041F047C042F0190E59EF04F04D
:1008A800D8904232413240323F32E82E54EF04F0C1
:1008B8003F504A2640504B2241504C2242504D2234
:1008C80046C047F045C046F044C045F0446A485029
:1008D80049C03FF0406A3F26000E4022820E3F2466
:1008E8004E6EFF0E40204F6E91EF04F0D8904A36BE
:1008F8004B364C364D3647AE84EF04F086EF04F0A5
:1009080087EF04F04A80D890443645364636473655
:100918004E06D8A04F0691EF04F04CAE96EF04F0C7
:1009280098EF04F07AEF04F09AEF04F0000E486EA6
:1009380047AEA1EF04F0A3EF04F0CBEF04F0FF0EF5
:1009480044143F6EFF0E4514406EFF0E4614416E70
:100958007F0E4714426E3F50401041104210D8B4E9
:10096800B8EF04F0BAEF04F0BEEF04F0010E486EE1
:10097800CBEF04F04AA0C3EF04F0C5EF04F0CBEFCF
:1009880004F0010E486ECBEF04F0CBEF04F04850B2
:10099800D8B4D1EF04F0D3EF04F0FBEF04F0010E6C
:1009A8004A26000E4B224C224D224DA0DEEF04F0C9
:1009B800E0EF04F0FBEF04F04AC03FF04BC040F01A
:1009C8004CC041F04DC042F04234423241324032D4
:1009D8003F323FC04AF040C04BF041C04CF042C0EB
:1009E8004DF04E4A4F2AFBEF04F0FBEF04F04FBEE8
:1009F80006EF05F04F5008E14E28D8A006EF05F0A5
:100A080008EF05F012EF05F0000E4A6E000E4B6E6F
:100A1800800E4C6E7F0E4D6E46EF05F04FBE1FEFF9
:100A280005F04F5006E14E04D8B01DEF05F01FEF5A
:100A380005F02BEF05F0000E4A6E000E4B6E000E0F
:100A48004C6E000E4D6E000E436E46EF05F04EC024
:100A580049F0FF0E4A16FF0E4B167F0E4C16000E7D
:100A68004D1649A03AEF05F03CEF05F03FEF05F0D1
:100A78004C8E3FEF05F0D89049304D6E46EF05F0AB
:100A880046EF05F043504D124AC037F04BC038F0DE
:100A98004CC039F04DC03AF052EF05F01200000199
:100AA8008351800B8C6F83518325936F82AF5FEFE7
:100AB80005F061EF05F064EF05F0938164EF05F050
:100AC8009351D8B46AEF05F06CEF05F083EF05F0A9
:100AD8009329D8A472EF05F074EF05F07EEF05F0C6
:100AE800000E806F000E816F000E826F000E836F04
:100AF8007EEF05F0828F000E836F8DEF05F0000EFC
:100B0800806F000E816F000E826F000E836F8DEF75
:100B180005F08751800B8C1B87518725946F86AF12
:100B280098EF05F09AEF05F09DEF05F094819DEFA1
:100B380005F09451D8B4A3EF05F0A5EF05F0BCEF8C
:100B480005F09429D8A4ABEF05F0ADEF05F0B7EFA9
:100B580005F0000E846F000E856F000E866F000E84
:100B6800876FB7EF05F0868F000E876FC6EF05F029
:100B7800000E846F000E856F000E866F000E876F63
:100B8800C6EF05F08451851186118711D8A4CFEFDF
:100B980005F0D1EF05F0EBEF05F0000E806F000EC9
:100BA800816F000E826F000E836F800E82137F0E9E
:100BB80083138C51831380C080F081C081F082C080
:100BC80082F083C083F063EF07F063EF07F093517F
:100BD800D8A4F1EF05F0F3EF05F007EF06F0000EEB
:100BE800806F000E816F000E826F000E836F80C0D1
:100BF80080F081C081F082C082F083C083F063EF0F
:100C080007F063EF07F09451506E516A501E511E61
:100C1800504A512A9351526E536A5050522651509D
:100C280053227F0E52248D6F000E53208E6F80C08A
:100C380088F081C089F082C08AF083C08BF0000EF2
:100C4800806F000E816F000E826F000E836F000EA2
:100C58008F6F000E906F000E916F000E926F000E56
:100C6800946F73EF06F09451D8B43DEF06F03FEF60
:100C780006F058EF06F0D890883789378A378B37CF
:100C8800D890803781378237833792AF4EEF06F09E
:100C980050EF06F051EF06F08081D8908F379037EB
:100CA8009137923758EF06F08451885D85518959FC
:100CB80086518A5987518B59D8A065EF06F067EF9E
:100CC80006F072EF06F0928D8451885F8551895B3A
:100CD80086518A5B87518B5B72EF06F0942B190E55
:100CE800946579EF06F07BEF06F037EF06F07DEFBD
:100CF80006F0885189118A118B11D8B486EF06F055
:100D080088EF06F0A4EF06F08F81A4EF06F0A4EFB9
:100D180006F0D890803781378237833792AF97EFC4
:100D280006F099EF06F09AEF06F08081D8908F3799
:100D38009037913792378D07D8A08E07A4EF06F029
:100D480082AFA9EF06F0ABEF06F08DEF06F0ADEF3E
:100D580006F0000E946F92AFB4EF06F0B6EF06F00F
:100D6800DEEF06F0FF0E8F15506EFF0E9015516ED8
:100D7800FF0E9115526E7F0E9215536E5050511002
:100D880052105310D8B4CBEF06F0CDEF06F0D1EFE8
:100D980006F0010E946FDEEF06F080A1D6EF06F0A4
:100DA800D8EF06F0DEEF06F0010E946FDEEF06F0E6
:100DB800DEEF06F09451D8B4E4EF06F0E6EF06F063
:100DC8000EEF07F0010E8027000E81238223832374
:100DD80083A1F1EF06F0F3EF06F00EEF07F080C005
:100DE80050F081C051F082C052F083C053F05334A8
:100DF800533252325132503250C080F051C081F0DB
:100E080052C082F053C083F08D4B8E2B0EEF07F04B
:100E18000EEF07F08EBF19EF07F08E5108E18D290C
:100E2800D8A019EF07F01BEF07F028EF07F0000E26
:100E38008E6F8D69000E806F000E816F000E826FBD
:100E4800000E836F28EF07F08EBF35EF07F08E5145
:100E580006E18D05D8B033EF07F035EF07F045EF21
:100E680007F0000E8E6F000E8D6F000E806F000E63
:100E7800816F000E826F000E836F000E8C6F45EF3E
:100E880007F08DC093F093A14CEF07F04EEF07F0F9
:100E980051EF07F0828F54EF07F0829F54EF07F06D
:100EA800D8909331836F8C51831380C080F081C0B8
:100EB80081F082C082F083C083F063EF07F01200F4
:100EC800959283929590839095949298939A9398FB
:100ED80093969394819A819881968194948A948820
:100EE80095869282C150F00B0D09C16E01014351E4
:100EF8001DEC20F001012E6F2E29D8A486EF07F0F3
:100F080088EF07F08CEF07F050EC20F090EF07F037
:100F180045EC20F090EF07F0010138B102D083943E
:100F280001D08384010142511DEC20F001012F6F93
:100F38002F29D8A4A2EF07F0A4EF07F0A8EF07F035
:100F480065EC20F0AAEF07F05BEC20F001013751C7
:100F58001DEC20F00101326F0EEC20F00101322966
:100F6800D8A4B9EF07F0BBEF07F0EEEF07F01D0EBE
:100F7800026F7F0E036FECEC15F0390E0101116F53
:100F8800010E126F000E146F040E136F3DEC1EF06D
:100F9800000E0101326F32C1BCF037511CEC1FF05A
:100FA800450E0101006F010E016F390E026F010E2F
:100FB800036F000E056F040E046F04EC19F0000EA9
:100FC8000101366F000E356F000E346F640E336FFB
:100FD8007BEF08F0450E006F010E016F390E026FAE
:100FE800010E036F000E056F040E046F3EEC19F03E
:100FF80001014C511DEC20F001012A6FD00E2A2569
:10100800006F016BFF0E0123000E036F640E026F69
:1010180036EC1FF000C135F101C136F101014D5127
:101028001DEC20F001012A6FD00E2A25006F016BFC
:10103800FF0E0123000E036F0A0E026F36EC1FF03D
:1010480001010051352701513623D00E2A6FFF0EBA
:101058002B6F4E511DEC20F001012C6F2D6B2A5186
:101068002C272B512D232C5135272D51362349510F
:101078001DEC20F001012A6FD00E2A25006F016BAC
:10108800FF0E0123000E036F640E026F36EC1FF093
:1010980000C133F101C134F101014A511DEC20F0C6
:1010A80001012A6FD00E2A25006F016BFF0E012364
:1010B800000E036F0A0E026F36EC1FF0010100519B
:1010C800332701513423D00E2A6FFF0E2B6F4B515B
:1010D8001DEC20F001012C6F2D6B2A512C272B5170
:1010E8002D232C5133272D5134237BEF08F0ABEC03
:1010F80015F09380010144511DEC20F00101306F7F
:10110800300E3019D8A48BEF08F08DEF08F091EF6E
:1011180008F06FEC20F095EF08F079EC20F095EFEF
:1011280008F0F00EF16E080EF06ED08EF28CF28E92
:1011380059EC1DF0A0EF08F021EC15F0000E0101AC
:10114800316F00EC1FF00101316F8CEC20F08CEC5A
:1011580020F0CAEF08F0E8EC19F0A0EF08F0DAEC9C
:1011680014F0A0EF08F07DEC0DF0A0EF08F067ECAC
:1011780015F0A0EF08F08CEC20F0FF00A0EF08F0CD
:10118800A0EF08F0A0EF08F0A0EF08F0010131513E
:10119800310AD8B4AFEF08F0030AD8B4B3EF08F0B7
:1011A800010AD8B4B7EF08F0070AD8B4BBEF08F0C3
:1011B800010AD8B4BFEF08F0A0EF08F0A0EF08F0DC
:1011C800A0EF08F057EF00F08088CF0EC116050E8B
:1011D800C26EBA0EC06EC282F2EF08F0C2B2F7EF6A
:1011E80008F0F9EF08F0F2EF08F0FBEF08F0C35051
:1011F80000019C6F9D6B9E6B9F6BC450A06FA16B91
:10120800A26BA36B9E9CA0C099F0A1C09AF0A2C04B
:101218009BF0986B98C0A8F099C0A9F09AC0AAF062
:101228009BC0ABF09C51A8279D51A9239E51AA238E
:101238009F51AB23000E3B6E000E3C6EA00E3D6E20
:10124800400E3E6EA8C029F0A9C02AF0AAC02BF013
:10125800ABC02CF0010E7CEC0EF029C037F02AC090
:1012680038F02BC039F02CC03AF01CEC03F037C032
:1012780080F038C081F039C082F03AC083F0000EA7
:101288000001846FC00E856F7F0E866F440E876FD6
:1012980053EC05F080C0A4F081C0A5F082C0A6F090
:1012A80083C0A7F0000E0001846F000E856F680EE2
:1012B800866FC20E876F000E3B6E000E3C6E340EBA
:1012C8003D6E430E3E6EA4C037F0A5C038F0A6C0F0
:1012D80039F0A7C03AF01CEC03F037C080F038C0F2
:1012E80081F039C082F03AC083F059EC00F080C038
:1012F80090F081C091F082C092F083C093F028EC06
:1013080011F090C0ADF091C0AEF0ADC0C1F0AEC06C
:10131800C2F0ADC02FF0AEC030F0000E326E640ED9
:10132800316EF8EC13F02F50300F01013E6F000EB4
:101338002C6E640E2B6EADC029F0AEC02AF06EEC98
:1013480014F029C02FF02AC030F0000E326E0A0EB9
:10135800316EF8EC13F02F50300F01013F6FADC024
:1013680029F0AEC02AF0000E2C6E0A0E2B6E6EEC21
:1013780014F02950300F0101406F000E416F000139
:10138800C305D8A4CAEF09F0CCEF09F02DEF0AF095
:10139800AD510101335D3451800A0001986FAE519F
:1013A800800A9859D8A0DBEF09F0DDEF09F0F2EFD9
:1013B80009F0010135510001AD5DAE51800A986F09
:1013C80001013651800A00019859D8B0EEEF09F0B2
:1013D800F0EF09F02DEF0AF0F2EF09F02BEC20F016
:1013E80054EC18F08098370E2F6E7E0E306EEAECB3
:1013F80016F094EC20F0960E2F6E7E0E306EEAEC0E
:1014080016F094EC20F094EC20F0FA0E2F6E7F0E7C
:10141800306EEAEC16F04FEC1FF00001AC6F94EC64
:1014280020F094EC20F021EF0AF055EC10F029EFB1
:101438000AF029EF0AF029EF0AF00001AC51310A4D
:10144800D8B419EF0AF029EF0AF02CEC16F02DEFBA
:101458000AF080981200000E0001C06F3CEF0BF0FC
:101468002FEF0BF0818A82AA3CEF0AF03EEF0AF0D8
:101478004BEF0AF0310EC06F42EF0AF082BA47EF25
:101488000AF049EF0AF042EF0AF04BEF0AF082A89F
:1014980050EF0AF052EF0AF060EF0AF0320E000146
:1014A800C06F57EF0AF082B85CEF0AF05EEF0AF0FF
:1014B80057EF0AF060EF0AF083A665EF0AF067EFCE
:1014C8000AF075EF0AF0330E0001C06F6CEF0AF0F6
:1014D80083B671EF0AF073EF0AF06CEF0AF075EF5C
:1014E8000AF0819A818882AA7CEF0AF07EEF0AF0DE
:1014F8008CEF0AF0340E0001C06F83EF0AF082BA55
:1015080088EF0AF08AEF0AF083EF0AF08CEF0AF00E
:1015180082A891EF0AF093EF0AF0A1EF0AF0350ED6
:101528000001C06F98EF0AF082B89DEF0AF09FEFB4
:101538000AF098EF0AF0A1EF0AF083A6A6EF0AF0E6
:10154800A8EF0AF0B6EF0AF0360E0001C06FADEF53
:101558000AF083B6B2EF0AF0B4EF0AF0ADEF0AF082
:10156800B6EF0AF08198818682AABDEF0AF0BFEF34
:101578000AF0CDEF0AF0370E0001C06FC4EF0AF091
:1015880082BAC9EF0AF0CBEF0AF0C4EF0AF0CDEF48
:101598000AF082A8D2EF0AF0D4EF0AF0E2EF0AF0DC
:1015A800380E0001C06FD9EF0AF082B8DEEF0AF0FA
:1015B800E0EF0AF0D9EF0AF0E2EF0AF083A6E7EFCE
:1015C8000AF0E9EF0AF0F7EF0AF0390E0001C06FF0
:1015D800EEEF0AF083B6F3EF0AF0F5EF0AF0EEEF5C
:1015E8000AF0F7EF0AF08196818482A8FEEF0AF0EC
:1015F80000EF0BF00EEF0BF0300E0001C06F05EF9F
:101608000BF082B80AEF0BF00CEF0BF005EF0BF0C4
:101618000EEF0BF083A613EF0BF015EF0BF023EF93
:101628000BF0230E0001C06F1AEF0BF083B61FEF0B
:101638000BF021EF0BF01AEF0BF023EF0BF0819476
:10164800410E0001BF6FEE0EE82EFED7BF2FFCD76C
:1016580000F02FEF0BF00001C051D8B436EF0BF0BB
:1016680038EF0BF036EF0AF03CEF0BF03CEF0BF0E5
:10167800C051ACEC16F00001BC51BD11D8B447EF15
:101688000BF049EF0BF02FEF0BF04BEF0BF0C051C5
:10169800B3EC1FF00001C05152EF0BF01200000E26
:1016A8002D6E53EF0CF047EF0CF0818A82AA5FEFA2
:1016B8000BF061EF0BF06EEF0BF0310E2D6E65EF56
:1016C8000BF082BA6AEF0BF06CEF0BF065EF0BF0E2
:1016D8006EEF0BF082A873EF0BF075EF0BF082EF53
:1016E8000BF0320E2D6E79EF0BF082B87EEF0BF017
:1016F80080EF0BF079EF0BF082EF0BF083A687EF0A
:101708000BF089EF0BF096EF0BF0330E2D6E8DEF8B
:101718000BF083B692EF0BF094EF0BF08DEF0BF01C
:1017280096EF0BF0819A818882AA9DEF0BF09FEFCC
:101738000BF0ACEF0BF0340E2D6EA3EF0BF082BA6A
:10174800A8EF0BF0AAEF0BF0A3EF0BF0ACEF0BF048
:1017580082A8B1EF0BF0B3EF0BF0C0EF0BF0350E32
:101768002D6EB7EF0BF082B8BCEF0BF0BEEF0BF0AD
:10177800B7EF0BF0C0EF0BF083A6C5EF0BF0C7EF88
:101788000BF0D4EF0BF0360E2D6ECBEF0BF083B6CB
:10179800D0EF0BF0D2EF0BF0CBEF0BF0D4EF0BF058
:1017A8008198818682AADBEF0BF0DDEF0BF0EAEF80
:1017B8000BF0370E2D6EE1EF0BF082BAE6EF0BF06F
:1017C800E8EF0BF0E1EF0BF0EAEF0BF082A8EFEF98
:1017D8000BF0F1EF0BF0FEEF0BF0380E2D6EF5EF7E
:1017E8000BF082B8FAEF0BF0FCEF0BF0F5EF0BF013
:1017F800FEEF0BF083A603EF0CF005EF0CF012EFF1
:101808000CF0390E2D6E09EF0CF083B60EEF0CF0CC
:1018180010EF0CF009EF0CF012EF0CF081968184B8
:1018280082A819EF0CF01BEF0CF028EF0CF0300E2B
:101838002D6E1FEF0CF082B824EF0CF026EF0CF0A1
:101848001FEF0CF028EF0CF083A62DEF0CF02FEF14
:101858000CF03CEF0CF0230E2D6E33EF0CF083B63A
:1018680038EF0CF03AEF0CF033EF0CF03CEF0CF0E3
:101878008194410E2C6EEE0EE82EFED72C2EFCD74E
:1018880000D047EF0CF02D50D8B44DEF0CF04FEFCF
:101898000CF059EF0BF053EF0CF053EF0CF02D5008
:1018A80066EC17F029502A10D8B45DEF0CF05FEF02
:1018B8000CF047EF0CF061EF0CF02D50CBEC1FF063
:1018C8002D5067EF0CF01200000E056E68EF0DF05A
:1018D8005CEF0DF0818A82AA74EF0CF076EF0CF0C1
:1018E80083EF0CF0310E056E7AEF0CF082BA7FEFC1
:1018F8000CF081EF0CF07AEF0CF083EF0CF082A87B
:1019080088EF0CF08AEF0CF097EF0CF0320E056EB2
:101918008EEF0CF082B893EF0CF095EF0CF08EEF91
:101928000CF097EF0CF083A69CEF0CF09EEF0CF0F8
:10193800ABEF0CF0330E056EA2EF0CF083B6A7EFF9
:101948000CF0A9EF0CF0A2EF0CF0ABEF0CF0819AC1
:10195800818882AAB2EF0CF0B4EF0CF0C1EF0CF062
:10196800340E056EB8EF0CF082BABDEF0CF0BFEF85
:101978000CF0B8EF0CF0C1EF0CF082A8C6EF0CF039
:10198800C8EF0CF0D5EF0CF0350E056ECCEF0CF06F
:1019980082B8D1EF0CF0D3EF0CF0CCEF0CF0D5EF10
:1019A8000CF083A6DAEF0CF0DCEF0CF0E9EF0CF0AA
:1019B800360E056EE0EF0CF083B6E5EF0CF0E7EFBE
:1019C8000CF0E0EF0CF0E9EF0CF08198818682AA28
:1019D800F0EF0CF0F2EF0CF0FFEF0CF0370E056EA5
:1019E800F6EF0CF082BAFBEF0CF0FDEF0CF0F6EF1F
:1019F8000CF0FFEF0CF082A804EF0DF006EF0DF0ED
:101A080013EF0DF0380E056E0AEF0DF082B80FEFE8
:101A18000DF011EF0DF00AEF0DF013EF0DF083A6A6
:101A280018EF0DF01AEF0DF027EF0DF0390E056ED7
:101A38001EEF0DF083B623EF0DF025EF0DF01EEF2E
:101A48000DF027EF0DF08196818482A82EEF0DF01E
:101A580030EF0DF03DEF0DF0300E056E34EF0DF068
:101A680082B839EF0DF03BEF0DF034EF0DF03DEF9C
:101A78000DF083A642EF0DF044EF0DF051EF0DF09D
:101A8800230E056E48EF0DF083B64DEF0DF04FEFC6
:101A98000DF048EF0DF051EF0DF08194410E046EFA
:101AA800EE0EE82EFED7042EFCD700D05CEF0DF02A
:101AB8000550D8B462EF0DF064EF0DF06EEF0CF046
:101AC80068EF0DF068EF0DF00550A2EC17F001502B
:101AD8000210D8B472EF0DF074EF0DF05CEF0DF05A
:101AE80076EF0DF00550E2EC1FF005507CEF0DF09D
:101AF800120035C102F136C103F1000E0101056F74
:101B0800640E046F81EC13F001010251300F226F53
:101B1800000E0001BF6F640EBE6F35C1BCF036C148
:101B2800BDF009EC13F0BCC002F1BDC003F1000E1A
:101B38000101056F0A0E046F81EC13F001010251D7
:101B4800300F236F35C1BCF036C1BDF0000E000167
:101B5800BF6F0A0EBE6F09EC13F00001BC51300FC5
:101B68000101246F000E256F33C102F134C103F166
:101B7800000E056F640E046F81EC13F00101025131
:101B8800300F266F000E0001BF6F640EBE6F33C1A9
:101B9800BCF034C1BDF009EC13F0BCC002F1BDC00B
:101BA80003F1000E0101056F0A0E046F81EC13F0BA
:101BB80001010251300F276F33C1BCF034C1BDF0B1
:101BC800000E0001BF6F0A0EBE6F09EC13F0000192
:101BD800BC51300F0101286F000E296FDB0E026F18
:101BE8007E0E036FECEC15F08CEC20F07F0E0101FB
:101BF800026F7E0E036FECEC15F08CEC20F0500EAB
:101C08000101026F7E0E036FECEC15F0220E01014C
:101C1800026F010E036FECEC15F0FD0E0101026F6F
:101C28007F0E036FECEC15F0260E0101026F010E1A
:101C3800036FECEC15F0F80E0101026F7F0E036FD5
:101C4800ECEC15F08CEC20F0C40E0101026F7E0E56
:101C5800036FECEC15F08CEC20F0A50E0101026F7F
:101C68007F0E036FECEC15F03E0E0101026F010EC2
:101C7800036FECEC15F0F60E0101026F7F0E036F97
:101C8800ECEC15F08CEC20F08CEC20F0FA0E010155
:101C9800026F7F0E036FECEC15F000EC1FF00101F2
:101CA800216F8CEC20F08CEC20F06BEF0EF05BECED
:101CB80020F07BEF0EF065EC20F07BEF0EF06AEC85
:101CC8000FF07BEF0EF07BEF0EF07BEF0EF00101D3
:101CD8002151310AD8B45BEF0EF0030AD8B45FEF94
:101CE8000EF0010AD8B463EF0EF07BEF0EF012008D
:101CF800316E3150D8B483EF0EF085EF0EF0A7EFB8
:101D08000EF02CBE8CEF0EF08AEF0EF0A7EF0EF05F
:101D180029C02DF02AC02EF02BC02FF02CC030F097
:101D28002D1E2E1E2F1E301E2D2A000E2E222F2273
:101D380030222DC033F02EC034F02FC035F030C023
:101D480036F0B1EF0EF029C033F02AC034F02BC0C2
:101D580035F02CC036F0B1EF0EF029502A102B10B8
:101D68002C10D8A4BAEF0EF0BCEF0EF0C8EF0EF0AE
:101D7800000E296E000E2A6E000E2B6E000E2C6EC1
:101D880069EF0FF069EF0FF0960E326ED4EF0EF098
:101D9800322AD8903632353234323332D4EF0EF01C
:101DA800000E33142D6E000E34142E6E000E3514F2
:101DB8002F6EFE0E3614306E2D502E102F10301050
:101DC800D8A4E9EF0EF0EBEF0EF0CCEF0EF0FBEF3E
:101DD8000EF0FBEF0EF0322A010E3326000E3422ED
:101DE80035223622D8903632353234323332000E2C
:101DF80033142D6E000E34142E6E000E35142F6E13
:101E0800FF0E3614306E2D502E102F103010D8A41F
:101E180010EF0FF012EF0FF0EFEF0EF01EEF0FF0D4
:101E28001EEF0FF03206D890333634363536363654
:101E38001EEF0FF035BE23EF0FF025EF0FF02FEF59
:101E48000FF0020E32602BEF0FF02DEF0FF016EFB0
:101E58000FF02FEF0FF032B034EF0FF036EF0FF036
:101E680039EF0FF0359E39EF0FF0D890323232C08B
:101E78002DF02E6A2F6A306A2DC030F02F6A2E6A34
:101E88002D6A2D5033122E5034122F5035123050E7
:101E980036123150D8B453EF0FF055EF0FF05FEF13
:101EA8000FF02CBE5CEF0FF05AEF0FF05FEF0FF062
:101EB800368E5FEF0FF033C029F034C02AF035C0FA
:101EC8002BF036C02CF069EF0FF01200DF0E010185
:101ED800026F7D0E036FECEC15F08CEC20F08CECAF
:101EE80020F0FA0E0101026F7F0E036FECEC15F083
:101EF8001D0E0101116F010E126F000E146F030EFB
:101F0800136F3DEC1EF08CEC20F08CEC20F01D0ED5
:101F18000101046F010E056FD2EC11F004C135F117
:101F280005C136F1FD0E0101026F7D0E036FECEC69
:101F380015F08CEC20F08CEC20F0FA0E0101026F09
:101F48007F0E036FECEC15F01D0E0101116F010EF1
:101F5800126F000E146F030E136F3DEC1EF08CEC25
:101F680020F08CEC20F01D0E0101046F010E056FAE
:101F7800D2EC11F004C133F105C134F135C102F1DD
:101F880036C103F1000E0101056F640E046F81EC88
:101F980013F001010251300F156F000E0001BF6FE1
:101FA800640EBE6F35C1BCF036C1BDF009EC13F04C
:101FB800BCC002F1BDC003F1000E0101056F0A0E9D
:101FC800046F81EC13F001010251300F166F35C117
:101FD800BCF036C1BDF0000E0001BF6F0A0EBE6F27
:101FE80009EC13F00001BC51300F0101176F000E0E
:101FF800186F33C102F134C103F1000E056F640E8E
:10200800046F81EC13F001010251300F196F000EBB
:102018000001BF6F640EBE6F33C1BCF034C1BDF0A8
:1020280009EC13F0BCC002F1BDC003F1000E0101C0
:10203800056F0A0E046F81EC13F001010251300F95
:102048001A6F33C1BCF034C1BDF0000E0001BF6F80
:102058000A0EBE6F09EC13F00001BC51300F0101EC
:102068001B6F000E1C6F4C0E006F010E016F150EDA
:10207800026F010E036F000E056F030E046F04EC70
:1020880019F0490E0101006F010E016F190E026F60
:10209800010E036F000E056F030E046F04EC19F0B8
:1020A8001200DF0E2F6E7D0E306EEAEC16F094EC07
:1020B80020F094EC20F0FA0E2F6E7F0E306EEAECD2
:1020C80016F04A0E3E6E000E3F6E000E416E030E75
:1020D800406E5FEC1EF094EC20F094EC20F04A0E79
:1020E8002F6E000E306E70EC12F02FC035F130C03C
:1020F80036F1FD0E2F6E7D0E306EEAEC16F094EC84
:1021080020F094EC20F0FA0E2F6E7F0E306EEAEC81
:1021180016F04A0E3E6E000E3F6E000E416E030E24
:10212800406E5FEC1EF094EC20F094EC20F04A0E28
:102138002F6E000E306E70EC12F02FC033F130C0ED
:1021480034F135C12FF036C130F0000E326E640E16
:10215800316EF8EC13F02F50300F426E000E2C6EDB
:10216800640E2B6E35C129F036C12AF06EEC14F0DE
:1021780029C02FF02AC030F0000E326E0A0E316EE0
:10218800F8EC13F02F50300F436E35C129F036C1EB
:102198002AF0000E2C6E0A0E2B6E6EEC14F02950ED
:1021A800300F446E000E456E33C12FF034C130F04D
:1021B800000E326E640E316EF8EC13F02F50300FB3
:1021C800466E000E2C6E640E2B6E33C129F034C19E
:1021D8002AF06EEC14F029C02FF02AC030F0000E5F
:1021E800326E0A0E316EF8EC13F02F50300F476E36
:1021F80033C129F034C12AF0000E2C6E0A0E2B6E62
:102208006EEC14F02950300F486E000E496E4C0EDB
:102218002B6E010E2C6E420E2D6E000E2E6E000ED1
:10222800306E030E2F6E2CEC1DF0490E2B6E010E36
:102238002C6E460E2D6E000E2E6E000E306E030EA6
:102248002F6E2CEC1DF01200000192359335556E5F
:102258005550D8A432EF11F034EF11F040EF11F0DF
:10226800000E906F000E916F000E926F000E936F2C
:10227800D1EF11F0D1EF11F090C094F091C095F02A
:1022880092C096F093C097F0200E50EF11F0D890BE
:102298009733963395339433E82E4BEF11F09451DE
:1022A800546E928FFF0E9017FF0E9117FF0E921724
:1022B800000E9317960E555E55BE67EF11F065EF49
:1022C80011F08BEF11F05550800A970FD8B06FEFCF
:1022D80011F071EF11F07FEF11F0000E906F000E0A
:1022E800916F000E926F000E936FD1EF11F0D1EF46
:1022F80011F07FEF11F0D8909333923391339033EC
:10230800553E7FEF11F0B5EF11F0B5EF11F01F0E4C
:10231800556491EF11F093EF11F0A9EF11F0000E51
:10232800906F000E916F000E926F000E936FD1EFB9
:1023380011F0D1EF11F0A9EF11F0D8909037913743
:10234800923793375506A9EF11F05550D8A4AFEF3F
:1023580011F0B1EF11F0A1EF11F0B5EF11F0B5EFF9
:1023680011F05450D8B4BBEF11F0BDEF11F0C7EF26
:1023780011F0931F921F911F906D000E91239223CD
:102388009323C7EF11F090C090F091C091F092C0E4
:1023980092F093C093F0D1EF11F01200D9EF11F041
:1023A8000101044B052BD9EF11F004C1D9FF05C178
:1023B800DAFF200EDE18D8B4E4EF11F0E6EF11F0E2
:1023C800D4EF11F004C1D9FF05C1DAFF090EDE18F8
:1023D800D8B4F1EF11F0F3EF11F0D4EF11F0F5EFFD
:1023E80011F0000E01010A6F000E096F000E086F50
:1023F80004C1D9FF05C1DAFF2D0EDE18D8A407EFF6
:1024080012F009EF12F00EEF12F0082B044B052B17
:1024180044EF12F004C1D9FF05C1DAFF2B0EDE1814
:10242800D8A419EF12F01BEF12F044EF12F0044B8E
:10243800052B44EF12F044EF12F044EF12F009C1FB
:1024480000F10AC101F1000E0101036F0A0E026FCB
:1024580036EC1FF004C1D9FF05C1DAFFDF500101D6
:10246800066F076B0051062701510723D00E06257A
:10247800096FFF0E07210A6F044B052B44EF12F07A
:1024880004C1D9FF05C1DAFFDF50C4EC1EF0D8B093
:1024980050EF12F052EF12F023EF12F054EF12F057
:1024A80001010851D8B45BEF12F05DEF12F06BEF49
:1024B80012F009C106F10AC107F1061F071F064BF2
:1024C800072B06C104F107C105F16FEF12F009C12E
:1024D80004F10AC105F1120076EF12F02F4A302AF2
:1024E80076EF12F02FC0D9FF30C0DAFF200EDE18C9
:1024F800D8B481EF12F083EF12F072EF12F02FC010
:10250800D9FF30C0DAFF090EDE18D8B48EEF12F00A
:1025180090EF12F072EF12F092EF12F0000E356E9B
:10252800000E346E000E336E2FC0D9FF30C0DAFFB4
:102538002D0EDE18D8A4A3EF12F0A5EF12F0AAEF23
:1025480012F0332A2F4A302ADEEF12F02FC0D9FFBB
:1025580030C0DAFF2B0EDE18D8A4B5EF12F0B7EFB3
:1025680012F0DEEF12F02F4A302ADEEF12F0DEEF23
:1025780012F0DEEF12F034C029F035C02AF0000E58
:102588002C6E0A0E2B6EF9EC1FF02FC0D9FF30C04D
:10259800DAFFDF50316E326A295031262A50322252
:1025A800D00E3124346EFF0E3220356E2F4A302A79
:1025B800DEEF12F02FC0D9FF30C0DAFFDF50E3ECB6
:1025C8001EF0D8B0EAEF12F0ECEF12F0BFEF12F005
:1025D800EEEF12F03350D8B4F4EF12F0F6EF12F039
:1025E80004EF13F034C031F035C032F0311E321E22
:1025F800314A322A31C02FF032C030F008EF13F0E0
:1026080034C02FF035C030F01200000E0101016F08
:102618000001BDBF14EF13F012EF13F01DEF13F01C
:10262800BC6DBD1FD8B0BD2B010E0101016F1DEFA0
:1026380013F00001BFBF25EF13F023EF13F02BEFCA
:1026480013F0BE6DBF1FD8B0BF2B2BEF13F0BE51D8
:10265800BF11D8B432EF13F034EF13F06AEF13F070
:10266800010E0101006F41EF13F00001D890BE3751
:10267800BF370101002B41EF13F00001BFAF47EF57
:1026880013F049EF13F039EF13F04DEF13F04DEF5E
:1026980013F00001BE51BC5DBF51BD59D8A057EF22
:1026A80013F059EF13F05FEF13F0BE51BC5FBF5149
:1026B800BD5B5FEF13F0D890BF33BE330101002F2D
:1026C8004DEF13F06AEF13F06AEF13F001010151B7
:1026D800D8B471EF13F073EF13F07AEF13F0000131
:1026E800BC6DBD1FD8B0BD2B7AEF13F0BCC0BCF0D9
:1026F800BDC0BDF080EF13F01200000E0101076F9E
:1027080005BF8BEF13F089EF13F093EF13F0046D0F
:10271800051FD8B0052B010E076F93EF13F003BF09
:102728009AEF13F098EF13F0A2EF13F0026D031F66
:10273800D8B0032B010E071BA2EF13F0000E096F90
:10274800000E086F04510511D8B4ADEF13F0AFEFC8
:1027580013F0E3EF13F0010E066FB9EF13F0D89002
:1027680004370537062BB9EF13F005AFBEEF13F0AA
:10277800C0EF13F0B3EF13F0C4EF13F0C4EF13F08E
:10278800D890083709370451025D05510359D8A07C
:10279800D0EF13F0D2EF13F0D9EF13F00451025F2A
:1027A8000551035B0881D9EF13F0D8900533043342
:1027B800062FC4EF13F0E3EF13F0E3EF13F0075124
:1027C800D8B4E9EF13F0EBEF13F0F1EF13F0086D65
:1027D800091FD8B0092BF1EF13F008C102F109C1A4
:1027E80003F1F7EF13F01200000E346E32BE01EF62
:1027F80014F0FFEF13F009EF14F0316C321ED8B06B
:10280800322A010E346E09EF14F030BE10EF14F0C6
:102818000EEF14F018EF14F02F6C301ED8B0302AD9
:10282800010E341A18EF14F0000E366E000E356ED5
:1028380031503210D8B423EF14F025EF14F059EFCB
:1028480014F0010E336E2FEF14F0D8903136323673
:10285800332A2FEF14F032AE34EF14F036EF14F0C1
:1028680029EF14F03AEF14F03AEF14F0D890353617
:10287800363631502F5C32503058D8A046EF14F01D
:1028880048EF14F04FEF14F031502F5E3250305AA9
:1028980035804FEF14F0D89032323132332E3AEF80
:1028A80014F059EF14F059EF14F03450D8B45FEF26
:1028B80014F061EF14F067EF14F0356C361ED8B0E1
:1028C800362A67EF14F035C02FF036C030F06DEFC0
:1028D80014F01200000E2E6E2ABE77EF14F075EF7A
:1028E80014F07FEF14F0296C2A1ED8B02A2A010EA2
:1028F8002E6E7FEF14F02CBE86EF14F084EF14F0E8
:102908008CEF14F02B6C2C1ED8B02C2A8CEF14F002
:102918002B502C10D8B493EF14F095EF14F0C5EFAA
:1029280014F0010E2D6E9FEF14F0D8902B362C3634
:102938002D2A9FEF14F02CAEA4EF14F0A6EF14F09C
:1029480099EF14F0AAEF14F0AAEF14F02B50295CB9
:102958002C502A58D8A0B3EF14F0B5EF14F0BBEF01
:1029680014F02B50295E2C502A5ABBEF14F0D89043
:102978002C322B322D2EAAEF14F0C5EF14F0C5EF30
:1029880014F02E50D8B4CBEF14F0CDEF14F0D3EFF1
:1029980014F0296C2A1ED8B02A2AD3EF14F029C0C3
:1029A80029F02AC02AF0D9EF14F01200320E0101E2
:1029B800026F7F0E036FECEC15F08CEC20F0070E25
:1029C8000101026F7F0E036FECEC15F08CEC20F028
:1029D800AD0E0101026F7E0E036FECEC15F08CEC6E
:1029E80020F08CEC20F0FA0E0101026F7F0E036FCD
:1029F800ECEC15F000EC1FF001010A6F8CEC20F0F4
:102A08008CEC20F014EF15F06FEC20F020EF15F0AF
:102A180079EC20F020EF15F020EF15F020EF15F0FD
:102A280001010A51310AD8B408EF15F0030AD8B4E5
:102A38000CEF15F020EF15F012005B0E0101026F8C
:102A48007F0E036FECEC15F08CEC20F0470E0101C3
:102A5800026F7F0E036FECEC15F0F2B836EF15F04D
:102A680039EF15F0010E3AEF15F0000E82EC1DF06B
:102A78008CEC20F01B0E0101026F7E0E036FECEC54
:102A880015F00001C35182EC1DF08CEC20F0680EAB
:102A98000101026F7E0E036FECEC15F08CEC20F058
:102AA800DD0E0101026F7F0E036FECEC15F08CEC6C
:102AB80020F08CEC20F0FA0E0101026F7F0E036FFC
:102AC800ECEC15F01200820E0101026F7F0E036F0D
:102AD800ECEC15F08CEC20F0B60E0101026F7F0EC5
:102AE800036FECEC15F08CEC20F08CEC20F0FA0E77
:102AF8000101026F7F0E036FECEC15F000EC1FF084
:102B080001010A6F8CEC20F08CEC20F098EF15F0A6
:102B180050EC20F0A4EF15F045EC20F0A4EF15F0F0
:102B2800A4EF15F0A4EF15F001010A51310AD8B449
:102B38008CEF15F0030AD8B490EF15F0A4EF15F058
:102B4800010138B102D0839401D083841200000EB1
:102B580001011A6FE0EF15F0940E026F7F0E036FFC
:102B6800ECEC15F0150E0101116F010E126F000E3D
:102B7800146F040E136F3DEC1EF0150E0001BC6FB0
:102B8800010EBD6F390EBE6F010EBF6FCAEC18F093
:102B98000001BC51BD11D8A4D4EF15F0D6EF15F043
:102BA800E0EF15F08CEC20F0010E01011A6F838222
:102BB800E0EF15F0E0EF15F001011A51D8B4E7EF96
:102BC80015F0E9EF15F0B0EF15F0EBEF15F0120086
:102BD80002C1BCF003C1BDF019EC18F0BCC006F18D
:102BE800BDC007F1000E0101096F000E086F1AEF52
:102BF80016F008510225046F09510321056F04C11D
:102C0800F6FF05C1F7FFF86A050EF76403D0080060
:102C1800F55005D0F6CFE9FFF7CFEAFFEF50B3EC58
:102C28001FF00101084B092B1AEF16F00651085D39
:102C38000951800A046F0751800A0459D8A027EF68
:102C480016F029EF16F0FDEF15F02BEF16F0120035
:102C58005B0E2F6E7F0E306EEAEC16F094EC20F0CF
:102C6800470E2F6E7F0E306EEAEC16F0F2B83FEF8B
:102C780016F042EF16F0010E43EF16F0000EF5ECD9
:102C88001DF094EC20F01B0E2F6E7E0E306EEAECD9
:102C980016F00001C351F5EC1DF094EC20F0680E1D
:102CA8002F6E7E0E306EEAEC16F094EC20F0DD0EFE
:102CB8002F6E7F0E306EEAEC16F094EC20F094EC58
:102CC80020F0FA0E2F6E7F0E306EEAEC16F012002E
:102CD8005B0E076E7F0E086E28EC17F09BEC20F059
:102CE800470E076E7F0E086E28EC17F0F2B87FEFDC
:102CF80016F082EF16F0010E83EF16F0000E19ECB5
:102D08001EF09BEC20F01B0E076E7E0E086E28EC62
:102D180017F00001C35119EC1EF09BEC20F0680E6F
:102D2800076E7E0E086E28EC17F09BEC20F0DD0E87
:102D3800076E7F0E086E28EC17F09BEC20F09BECDA
:102D480020F0FA0E076E7F0E086E28EC17F01200BE
:102D58000001BE6F0D0E0001BE19D8B4B6EF16F013
:102D6800B8EF16F0C3EF16F0230EBE19D8A4BFEFC4
:102D780016F0C1EF16F0CBEF16F0C3EF16F0000E09
:102D8800BD6F010EBC6FE9EF16F0E9EF16F02F0EDC
:102D9800BE65D1EF16F0D3EF16F0E3EF16F03A0E5A
:102DA800BE61D9EF16F0DBEF16F0E3EF16F0000E78
:102DB800BD6F010EBC6FE9EF16F0E9EF16F0000EDB
:102DC800BD6F000EBC6FE9EF16F012002FC029F09E
:102DD80030C02AF098EC1BF029C033F02AC034F038
:102DE800000E366E000E356E16EF17F035502F2494
:102DF800316E36503020326E31C0F6FF32C0F7FFE8
:102E0800F86A050EF76403D00800F55005D0F6CF30
:102E1800E9FFF7CFEAFFEF50CBEC1FF0354A362A2F
:102E280016EF17F03350355C3650800A316E345047
:102E3800800A3158D8A023EF17F025EF17F0FAEFE2
:102E480016F027EF17F0120007C001F008C002F0D3
:102E5800CDEC1BF001C00BF002C00CF0000E0E6EA2
:102E6800000E0D6E54EF17F00D500724096E0E502A
:102E780008200A6E09C0F6FF0AC0F7FFF86A050EB7
:102E8800F76403D00800F55005D0F6CFE9FFF7CF77
:102E9800EAFFEF50E2EC1FF00D4A0E2A54EF17F04C
:102EA8000B500D5C0E50800A096E0C50800A0958B0
:102EB800D8A061EF17F063EF17F038EF17F065EF60
:102EC80017F012002B6E0D0E2B18D8B46EEF17F0FA
:102ED80070EF17F07BEF17F0230E2B18D8A477EFBD
:102EE80017F079EF17F083EF17F07BEF17F0000E6C
:102EF8002A6E010E296EA1EF17F0A1EF17F02F0E21
:102F08002B6489EF17F08BEF17F09BEF17F03A0E51
:102F18002B6091EF17F093EF17F09BEF17F0000E6F
:102F28002A6E010E296EA1EF17F0A1EF17F0000E1F
:102F38002A6E000E296EA1EF17F01200036E0D0E17
:102F48000318D8B4AAEF17F0ACEF17F0B7EF17F0E3
:102F5800230E0318D8A4B3EF17F0B5EF17F0BFEF9F
:102F680017F0B7EF17F0000E026E010E016EDDEFDD
:102F780017F0DDEF17F02F0E0364C5EF17F0C7EF5A
:102F880017F0D7EF17F03A0E0360CDEF17F0CFEF39
:102F980017F0D7EF17F0000E026E010E016EDDEF8D
:102FA80017F0DDEF17F0000E026E000E016EDDEF78
:102FB80017F01200000E0001C06FF8EF17F0948EA2
:102FC800810EAF6EAC98AC84AB9CAB8EAB88EDEF4A
:102FD80017F09EAAF2EF17F0F4EF17F0EDEF17F0E5
:102FE800AECFC0F0F8EF17F00001C051ACEC16F00E
:102FF8000001BC51BD11D8B404EF18F006EF18F069
:10300800E3EF17F008EF18F0C051B3EC1FF0410ED2
:103018000001BF6FEE0EE82EFED7BF2FFCD700F0E1
:103028000001C05118EF18F01200BCC000F1BDC07B
:1030380001F124EF18F00101004B012B24EF18F0E7
:1030480000C1F6FF01C1F7FFF86A050EF76403D067
:103058000800F55005D0F6CFE9FFF7CFEAFFEF50AB
:103068000009D8A43AEF18F03CEF18F01FEF18F059
:103078003EEF18F0BCC0BEF0BDC0BFF00001BE1FDF
:10308800BF1FBE4BBF2B010100510001BE25BC6F05
:10309800010101510001BF21BD6F53EF18F012006B
:1030A800000E476E84EF18F0940E2F6E7F0E306E70
:1030B800EAEC16F0420E3E6E000E3F6E000E416EB8
:1030C800040E406E5FEC1EF0420E296E000E2A6E52
:1030D800390E2B6E010E2C6E1EEC1AF029502A1098
:1030E800D8A479EF18F07BEF18F084EF18F094EC7F
:1030F80020F0010E476E838284EF18F084EF18F0F9
:103108004750D8B48AEF18F08CEF18F058EF18F041
:103118008EEF18F01200000E1F6EBFEF18F0940E1D
:10312800076E7F0E086E28EC17F01A0E166E000E4A
:10313800176E000E196E040E186E81EC1EF01A0E32
:10314800016E000E026E390E036E010E046EF6EC6F
:103158001AF001500210D8A4B4EF18F0B6EF18F026
:10316800BFEF18F09BEC20F0010E1F6E8382BFEFBB
:1031780018F0BFEF18F01F50D8B4C5EF18F0C7EF1C
:1031880018F093EF18F0C9EF18F01200D3EF18F009
:103198000001BC4BBD2BBE4BBF2BD3EF18F0BCC0FE
:1031A800D9FFBDC0DAFFDF500001C06FBEC0D9FF34
:1031B800BFC0DAFFDF500008C0250101006F0051D1
:1031C800D8A4E9EF18F0EBEF18F0FBEF18F0BCC04B
:1031D800D9FFBDC0DAFFDF50D8A4F5EF18F0F7EF3C
:1031E80018F0CCEF18F0FBEF18F0FBEF18F00051D7
:1031F8000001BC6FBD6BBCBFBD0703EF19F0120027
:10320800000E0001C06F000EBF6F28EF19F0BF510C
:1032180001010225D96E0001C05101010321DA6EB6
:10322800DF500001BC6FBF5101010025D96E0001BC
:10323800C05101010121DA6EDF501CEC1FF00001C2
:10324800BF4BC02B28EF19F0010104510001BF5DED
:10325800C051800ABE6F01010551800A0001BE59A4
:10326800D8A039EF19F03BEF19F00BEF19F03DEF4B
:1032780019F01200000E0001C06F000EBF6F61EF61
:1032880019F0BF5101010225D96E0001C051010199
:103298000321DA6E0001BF5101010025E16E000132
:1032A800C05101010121E26EE7501DEC20F0DF6EF4
:1032B8000001BF4BC02B61EF19F00101045100015F
:1032C800BF5DC051800ABE6F01010551800A00012F
:1032D800BE59D8A072EF19F074EF19F045EF19F044
:1032E80076EF19F0120038EC20F083808FEC18F09C
:1032F8008390F10E076E7E0E086E28EC17F09BEC9B
:1033080020F0960E076E7E0E086E28EC17F09BECE8
:1033180020F09BEC20F0FA0E076E7F0E086E28EC6A
:1033280017F081EC1FF0206E9BEC20F09BEC20F056
:10333800A6EF19F083EC20F0ADEF19F0ADEF19F01E
:10334800ADEF19F02050310AD8B49EEF19F0ADEF67
:1033580019F06CEC16F01200000E0101006F3851E4
:10336800D8B4B9EF19F0BBEF19F0DAEF19F0C5EFDF
:1033780019F0C5EF19F02FEC0AF00101006FC5EF45
:1033880019F0230E0019D8A4CCEF19F0CEEF19F0DC
:10339800BFEF19F0E7EF19F0E7EF19F0DAEF19F0DE
:1033A800DEEC17F00101006FDAEF19F00D0E0019CD
:1033B800D8A4E1EF19F0E3EF19F0D4EF19F0E7EF33
:1033C80019F0E7EF19F012006F0E0101026F7F0E7E
:1033D800036FECEC15F08CEC20F0960E0101026FF7
:1033E8007E0E036FECEC15F08CEC20F08CEC20F0EA
:1033F800FA0E0101026F7F0E036FECEC15F000EC82
:103408001FF001011B6F8CEC20F08CEC20F015EF05
:103418001AF0ABEC1DF01DEF1AF01DEF1AF01DEFBE
:103428001AF001011B51310AD8B40DEF1AF01DEF43
:103438001AF0120026EF1AF0294A2A2A2B4A2C2AB7
:1034480026EF1AF029C0D9FF2AC0DAFFDF502D6E07
:103458002BC0D9FF2CC0DAFFDF5000082D242E6EB8
:103468002E50D8A43AEF1AF03CEF1AF04CEF1AF0AD
:1034780029C0D9FF2AC0DAFFDF50D8A446EF1AF0D6
:1034880048EF1AF020EF1AF04CEF1AF04CEF1AF050
:103498002E50296E2A6A29BE2A0653EF1AF0120006
:1034A800000E2E6E01013851D8B45DEF1AF05FEFAF
:1034B8001AF07CEF1AF068EF1AF068EF1AF053EC84
:1034C8000BF02E6E68EF1AF0230E2E18D8A46FEFAB
:1034D8001AF071EF1AF063EF1AF089EF1AF089EF1A
:1034E8001AF07CEF1AF08AEC1AF02E6E7CEF1AF0C4
:1034F8000D0E2E18D8A483EF1AF085EF1AF077EF87
:103508001AF089EF1AF089EF1AF01200000E2D6EEA
:10351800A3EF1AF0948E810EAF6EAC98AC84AB9C7E
:10352800AB8EAB8898EF1AF09EAA9DEF1AF09FEF2A
:103538001AF098EF1AF0AECF2DF0A3EF1AF02D5035
:1035480066EC17F029502A10D8B4ADEF1AF0AFEF97
:103558001AF08EEF1AF0B1EF1AF02D50CBEC1FF0E5
:10356800410E2C6EEE0EE82EFED72C2EFCD700D086
:103578002D50BFEF1AF012000600E9CF21F0EACF74
:1035880022F0D9CF23F0DACF24F0F6CF25F0F7CF09
:1035980026F0F8CF27F0F5CF28F0F2A8D6EF1AF0EA
:1035A800D8EF1AF0E4EF1AF0F2A2DDEF1AF0DFEF2D
:1035B8001AF0E4EF1AF077EC19F0F292E4EF1AF04F
:1035C80028C0F5FF27C0F8FF26C0F7FF25C0F6FF83
:1035D80024C0DAFF23C0D9FF22C0EAFF21C0E9FFD7
:1035E80056921100FEEF1AF0014A022A034A042AF1
:1035F800FEEF1AF001C0D9FF02C0DAFFDF50056EF6
:1036080003C0D9FF04C0DAFFDF5000080524066EA6
:103618000650D8A412EF1BF014EF1BF024EF1BF098
:1036280001C0D9FF02C0DAFFDF50D8A41EEF1BF09B
:1036380020EF1BF0F8EF1AF024EF1BF024EF1BF03B
:103648000650016E026A01BE02062BEF1BF0120043
:10365800000E066E01013851D8B435EF1BF037EF74
:103668001BF054EF1BF040EF1BF040EF1BF068EC31
:103678000CF0066E40EF1BF0230E0618D8A447EF97
:103688001BF049EF1BF03BEF1BF061EF1BF061EF04
:103698001BF054EF1BF062EC1BF0066E54EF1BF0AE
:1036A8000D0E0618D8A45BEF1BF05DEF1BF04FEF73
:1036B8001BF061EF1BF061EF1BF01200000E056EAE
:1036C8007BEF1BF0948E810EAF6EAC98AC84AB9CF4
:1036D800AB8EAB8870EF1BF09EAA75EF1BF077EFEF
:1036E8001BF070EF1BF0AECF05F07BEF1BF0055021
:1036F800A2EC17F001500210D8B485EF1BF087EF49
:103708001BF066EF1BF089EF1BF00550E2EC1FF091
:10371800410E046EEE0EE82EFED7042EFCD700D024
:10372800055097EF1BF0120029C02DF02AC02EF08B
:10373800A2EF1BF02D4A2E2AA2EF1BF02DC0F6FF98
:103748002EC0F7FFF86A050EF76403D00800F5509D
:1037580005D0F6CFE9FFF7CFEAFFEF500009D8A46C
:10376800B8EF1BF0BAEF1BF09EEF1BF0BCEF1BF09D
:1037780029C02BF02AC02CF02B1E2C1E2B4A2C2AD9
:103788002D502B24296E2E502C202A6ECCEF1BF0A6
:10379800120001C005F002C006F0D7EF1BF0054A81
:1037A800062AD7EF1BF005C0F6FF06C0F7FFF86A38
:1037B800050EF76403D00800F55005D0F6CFE9FFF1
:1037C800F7CFEAFFEF500009D8A4EDEF1BF0EFEFB9
:1037D8001BF0D3EF1BF0F1EF1BF001C003F002C0A8
:1037E80004F0031E041E034A042A05500324016E34
:1037F80006500420026E01EF1CF01200000E0101B9
:10380800106F000E0F6F17EF1CF00F510A25D96EBD
:1038180010510B21DA6EDEEC17F0DF6E01010F4B51
:10382800102B17EF1CF00C510F5D1051800A0E6F12
:103838000D51800A0E59D8A024EF1CF026EF1CF079
:1038480009EF1CF028EF1CF00C510A25D96E0D5118
:103858000B21DA6E000EDF6EB0EC19F08CEC20F064
:103868001200000E0101106F000E0F6F4AEF1CF0DE
:103878000F510A25D96E10510B21DA6E2FEC0AF080
:10388800DF6E01010F4B102B4AEF1CF00C510F5D3E
:103898001051800A0E6F0D51800A0E59D8A057EFAB
:1038A8001CF059EF1CF03CEF1CF05BEF1CF00C51C6
:1038B8000A25D96E0D510B21DA6E000EDF6EB0ECC1
:1038C80019F08CEC20F01200000E3D6E000E3C6EDC
:1038D8007BEF1CF03C503724D96E3D503820DA6E0F
:1038E8008AEC1AF0DF6E3C4A3D2A7BEF1CF0395017
:1038F8003C5C3D50800A3B6E3A50800A3B58D8A049
:1039080088EF1CF08AEF1CF06EEF1CF08CEF1CF0B7
:1039180039503724D96E3A503820DA6E000EDF6EEF
:1039280054EC1AF094EC20F01200000E3D6E000EDC
:103938003C6EACEF1CF03C503724D96E3D5038201B
:10394800DA6E53EC0BF0DF6E3C4A3D2AACEF1CF00C
:1039580039503C5C3D50800A3B6E3A50800A3B58D7
:10396800D8A0B9EF1CF0BBEF1CF09FEF1CF0BDEF27
:103978001CF039503724D96E3A503820DA6E000ED0
:10398800DF6E54EC1AF094EC20F01200000E156E65
:10399800000E146EDDEF1CF014500F24D96E155074
:1039A8001020DA6E62EC1BF0DF6E144A152ADDEF88
:1039B8001CF01150145C1550800A136E1250800AC6
:1039C8001358D8A0EAEF1CF0ECEF1CF0D0EF1CF075
:1039D800EEEF1CF011500F24D96E12501020DA6E41
:1039E800000EDF6E2CEC1BF09BEC20F01200000E9A
:1039F800156E000E146E0EEF1DF014500F24D96EC4
:103A080015501020DA6E68EC0CF0DF6E144A152A97
:103A18000EEF1DF01150145C1550800A136E1250F1
:103A2800800A1358D8A01BEF1DF01DEF1DF001EF01
:103A38001DF01FEF1DF011500F24D96E12501020E9
:103A4800DA6E000EDF6E2CEC1BF09BEC20F01200FF
:103A5800000E336E000E326E47EF1DF032502D24EB
:103A6800D96E33502E20DA6EDF50296E32502B2457
:103A7800D96E33502C20DA6EDF5068EC1FF0324AD2
:103A8800332A47EF1DF02F50325C3350800A316ED5
:103A98003050800A3158D8A054EF1DF056EF1DF071
:103AA80032EF1DF058EF1DF01200D59CD59AD5982D
:103AB800D596D580D582D584980E0101016F960ED2
:103AC800006F00C1BCF001C1BDF00001BC1FBD1FEB
:103AD800BC4BBD2BFF0EBC250101046FFF0E00017E
:103AE800BD210101056F0551026F04C103F102C137
:103AF800D7FF03C1D6FFF28AF29412000001C06F0B
:103B08000001C051D8A48BEF1DF08DEF1DF096EF8A
:103B18001DF0C60E0101026F7F0E036FECEC15F06D
:103B2800AAEF1DF00001C005D8A49DEF1DF09FEF7E
:103B38001DF0AAEF1DF0D20E0101026F7F0E036F78
:103B4800ECEC15F0AAEF1DF0AAEF1DF01200ABEC9B
:103B580015F01D0E0101026F7F0E036FECEC15F0DE
:103B6800390E0101116F010E126F000E146F040E51
:103B7800136F3DEC1EF08CEC20F0450E0101006F38
:103B8800010E016F390E026F010E036F000E056FF3
:103B9800040E046F04EC19F01200D59CD59AD59840
:103BA800D596D580D582D584980E2C6E960E2B6E20
:103BB8002BC029F02CC02AF0291E2A1E294A2A2A9D
:103BC800FF0E29242F6EFF0E2A20306E30502D6EE6
:103BD8002FC02EF02DC0D7FF2EC0D6FFF28AF29448
:103BE8001200376E3750D8A4FCEF1DF0FEEF1DF021
:103BF80006EF1EF0C60E2F6E7F0E306EEAEC16F042
:103C080018EF1EF03704D8A40CEF1EF00EEF1EF0CC
:103C180018EF1EF0D20E2F6E7F0E306EEAEC16F003
:103C280018EF1EF018EF1EF012000F6E0F50D8A4F8
:103C380020EF1EF022EF1EF02AEF1EF0C60E076ED0
:103C48007F0E086E28EC17F03CEF1EF00F04D8A486
:103C580030EF1EF032EF1EF03CEF1EF0D20E076E72
:103C68007F0E086E28EC17F03CEF1EF03CEF1EF0BC
:103C7800120001013851D8A444EF1EF046EF1EF09F
:103C880052EF1EF011C10AF112C10BF113C10CF170
:103C980014C10DF102EC1CF05EEF1EF011C10AF127
:103CA80012C10BF113C10CF114C10DF135EC1CF06C
:103CB8005EEF1EF0120001013851D8A466EF1EF025
:103CC80068EF1EF074EF1EF03EC037F03FC038F0CA
:103CD80040C039F041C03AF068EC1CF080EF1EF0AB
:103CE8003EC037F03FC038F040C039F041C03AF02C
:103CF80099EC1CF080EF1EF0120001013851D8A495
:103D080088EF1EF08AEF1EF096EF1EF016C00FF037
:103D180017C010F018C011F019C012F0CAEC1CF04E
:103D2800A2EF1EF016C00FF017C010F018C011F067
:103D380019C012F0FBEC1CF0A2EF1EF01200440EAA
:103D4800F66E410EF76E000EF86E01EE42F010EEC0
:103D58000DF00900F5CFEEFFE550E150FAE101EE74
:103D680033F00F0EEE6AE806FDE10001C36BC26B8B
:103D7800C16B56905692000EF86E000164EF07F082
:103D88000001BE6F000E0001BD6F3A0EBE61CFEF9D
:103D98001EF0D1EF1EF0DDEF1EF02F0EBE65D7EF3F
:103DA8001EF0D9EF1EF0DDEF1EF0010EBD6FDDEF46
:103DB8001EF0BDC0BCF0BC31E2EF1EF012002B6E4D
:103DC800000E2A6E3A0E2B60ECEF1EF0EEEF1EF09E
:103DD800FAEF1EF02F0E2B64F4EF1EF0F6EF1EF034
:103DE800FAEF1EF0010E2A6EFAEF1EF02AC029F033
:103DF8002930FFEF1EF01200000E0101016F38514B
:103E0800D8A409EF1FF00BEF1FF011EF1FF0DEEC45
:103E180017F00101016F15EF1FF02FEC0AF00101F7
:103E2800016FB0EC19F0010101511BEF1FF01200F6
:103E38000001BD6FBDC0A9FFBCC0A8FFA69EA69C7F
:103E4800A684550EA76EAA0EA76EA6822CEF1FF0A9
:103E5800A6B231EF1FF033EF1FF02CEF1FF035EF54
:103E68001FF01200010100510203F3CFBEF0F4CF9E
:103E7800BFF000510303F3500001BF2701010151B6
:103E88000203F3500001BF27BEC000F1BFC001F11B
:103E98004EEF1FF01200000E2F6E01013851D8A40A
:103EA80058EF1FF05AEF1FF05FEF1FF08AEC1AF07F
:103EB8002F6E62EF1FF053EC0BF02F6E54EC1AF0DC
:103EC8002F5067EF1FF012002A6E2AC0A9FF29C0E1
:103ED800A8FFA69EA69CA684550EA76EAA0EA76E3E
:103EE800A68277EF1FF0A6B27CEF1FF07EEF1FF0DF
:103EF80077EF1FF080EF1FF01200000E076E010130
:103F08003851D8A48AEF1FF08CEF1FF091EF1FF003
:103F180062EC1BF0076E94EF1FF068EC0CF0076E74
:103F28002CEC1BF0075099EF1FF01200026E02C034
:103F3800A9FF01C0A8FFA69EA69CA684550EA76E41
:103F4800AA0EA76EA682A9EF1FF0A6B2AEEF1FF0C9
:103F5800B0EF1FF0A9EF1FF0B2EF1FF01200000141
:103F6800BC6F948E810EAF6EAC98AC84AB9CAB8E5C
:103F7800AC8ABFEF1FF0ACA2C4EF1FF0C6EF1FF072
:103F8800BFEF1FF0C8EF1FF0BCC0ADFF1200296ED5
:103F9800948E810EAF6EAC98AC84AB9CAB8EAC8A21
:103FA800D6EF1FF0ACA2DBEF1FF0DDEF1FF0D6EF6E
:103FB8001FF0DFEF1FF029C0ADFF1200016E948ED5
:103FC800810EAF6EAC98AC84AB9CAB8EAC8AEDEF37
:103FD8001FF0ACA2F2EF1FF0F4EF1FF0EDEF1FF0AF
:103FE800F6EF1FF001C0ADFF120029502B02F3CFEE
:103FF8002DF0F4CF2EF029502C02F3502E262A5003
:104008002B02F3502E262DC029F02EC02AF00DEFDA
:1040180020F01200ED0E0101026F7F0E036FECEC31
:1040280015F0E60E0101026F7F0E036FECEC15F040
:1040380012000001BC6FBCC0A9FFA69EA69CA6806A
:10404800A8CFBDF00001BD512AEF20F01200ED0EFF
:104058002F6E7F0E306EEAEC16F0E60E2F6E7F0E96
:10406800306EEAEC16F01200ED0E076E7F0E086E49
:1040780028EC17F0E60E076E7F0E086E28EC17F096
:104088001200010E0101386F300E0001BC6F0101F2
:1040980043511CEC1FF01200000E0101386FFF0E97
:1040A8000001BC6F010143511CEC1FF01200010E0E
:1040B8000001C36F300EBC6F010142511CEC1FF0B0
:1040C8001200000E0001C36FFF0EBC6F01014251C8
:1040D8001CEC1FF01200F288F292300E0001BC6F47
:1040E800010144511CEC1FF01200F298F292FF0EED
:1040F8000001BC6F010144511CEC1FF01200F29842
:10410800F292FF0E016E010144519AEC1FF0120069
:10411800F20E0101026F7F0E036FECEC15F0120036
:10412800F20E2F6E7F0E306EEAEC16F01200F20ED1
:10413800076E7F0E086E28EC17F0120007060501BF
:094148000203040B0C0D08090A26
:107DDE0000456E746572206D696E696D756D2074E7
:107DEE00656D70657261747572652028462900454F
:107DFE006E746572206D6178696D756D2074656D38
:107E0E0070657261747572652028462900332E20C4
:107E1E0054656D70657261747572652053656E730D
:107E2E006F7220416C61726D00312E2041646A7553
:107E3E0073742054454D50207468726573686F6C6E
:107E4E006400332E2041646A7573742054454D507E
:107E5E002073656E736F72202800342E205377695D
:107E6E0074636820496E707574204D6574686F6414
:107E7E0000322E2044697361626C652054454D506A
:107E8E002073656E736F7200322E20526574757298
:107E9E006E20746F206D61696E206D656E75003396
:107EAE002E2052657475726E20746F206D61696E2E
:107EBE00206D656E7500342E2052657475726E20BD
:107ECE00746F206D61696E206D656E7500312E20A8
:107EDE00456E61626C652054454D502073656E731E
:107EEE006F7200312E2044697361626C65205049B7
:107EFE00522073656E736F7200322E204469736167
:107F0E00626C65205049522073656E736F72004526
:107F1E006E746572206E65772070617373776F7201
:107F2E00643A2000312E20456E61626C6520504906
:107F3E00522073656E736F7200322E20504952209C
:107F4E0053656E736F7220416C61726D00312E201D
:107F5E0050617373636F6465204F7074696F6E73D5
:107F6E0000312E204368616E676520706173736304
:107F7E006F646500312E204B6579626F61726420EB
:107F8E00496E70757400456E7465722070617373FE
:107F9E00776F72643A2000202843757272656E7492
:107FAE002074656D703A2000322E204B6579706119
:107FBE006420496E70757400202844697361626C88
:107FCE00656429002028456E61626C656429003560
:107FDE002E205265736574001B5B303B3048001BCE
:107FEE005B324A000A0D0D00204629003E20002D6E
:027FFE00000081
:020000040020DA
:08000000FFFFFFFFFFFFFFFF00
:020000040030CA
:0E000000FF021F1EFF8381FF0FC00FE00F40A5
:00000001FF
